:100000000C9450010C946D010C9488010C946D01BA
:100010000C946D010C946D010C94CF140C946D0133
:100020000C946D010C946D010C946D010C946D0198
:100030000C946D010C946D010C94700C0C946D017A
:100040000C946D010C946D010C946D010C946D0178
:100050000C946D010C946D010C946D010C946D0168
:100060000C9416180C946D0135001E001F00200022
:10007000210022002300000000000000000000001A
:1000800000000000000000002B0014001A0008000F
:10009000150017001C000000000000000000000018
:1000A00000000000000000003900040016000700F6
:1000B00009000A000B000000000000000000000022
:1000C0000000000000000000E10000001D001B0017
:1000D00006001900050000000000000000000000FC
:1000E00000000000000000000000E000E300E2006B
:1000F0002C000000000000000000000000000000D4
:100100000000000000000000000000002A002E0097
:100110002D0027002600250024000000000000001C
:10012000000000000000000000000000310030006E
:100130002F00130012000C00180000000000000047
:100140000000000000000000000000000000280087
:10015000340033000F000E000D000000000000000E
:100160000000000000000000000052000000E50058
:1001700038003700360010001100000000000000B9
:1001800000000000000000004F0051005000E4009B
:100190006500E600000000002C00000000000000E8
:1001A000000000000000000005010980A101850396
:1001B00019012AB700150126B700950175108100B5
:1001C000C0050C0901A101850419012AA00215012D
:1001D00026A002950175108100C005010906A10144
:1001E000050719E029E71500250195087501810229
:1001F0009501750881030507190029FF150026FFE1
:1002000000950675088100050819012905950575F1
:10021000019102950175039103C02603410073000B
:1002200073006900730074006900760065002000A7
:100230004B006500790062006F006100720064008D
:1002400000000A0346004500490054000000040372
:10025000090409023B00020100A0FA0904000001A0
:10026000030101000921010100012240000705816D
:100270000308000109040100010300000009210135
:10028000010001223200070583030800011201105A
:100290000100000008EDFE00000001010200010065
:1002A00011241FBECFEFD8E0DEBFCDBF23E0ACE707
:1002B000B1E001C01D92A437B207E1F711E0A0E060
:1002C000B1E0E6E6F3E302C005900D92AC37B1076A
:1002D000D9F70E94F6140C947C190C940000A82FF6
:1002E000B92F80E090E041E050EA609530E009C02D
:1002F0002D9182279795879510F084279527305E5A
:10030000C8F36F5FA8F30895EADF8D939D93089576
:10031000CF93CFB7CF93DF93C3954B9BE9F74B9B1D
:1003200010C04B9B0EC04B9B0CC04B9B0AC04B9B01
:1003300008C04B9B06C0C0913E03C395C0933E03CB
:100340008EC06F93C0913D03DD27CE5BDC4F2F93B2
:1003500065E54B9B03C02F916F91E1CF0F931F93E6
:100360004F9320E040E15F9309B10C7003FB27F944
:100370003F9350E03BE039C01C7040642F77012F61
:100380005F5F1EC0406819B11C702F7752501FC0AC
:10039000406409B12F770C70D1F15F5F00C023C0BA
:1003A000406219B12F771C7091F15F5F00C025C0CA
:1003B0000C701027515012F45D5F0000115027950A
:1003C0002C3F19B1C8F61C700127015027952C3F0E
:1003D000C8F64227499309B10C7010274F7311508A
:1003E00027952C3FA8F64695469519B11C7079F0D3
:1003F0000127015027952C3F98F66B5A60F3315036
:1004000009B1B0F600C012E01CBB00271CC03B5075
:100410003195C31BD04012E01CBB0881033C21F185
:100420000B3411F120913B031981110F1213EDCF01
:100430004A81441F093679F10D3211F0013E29F746
:100440004F7009F0042F009341033F915F914F914A
:100450001F910F912F916F91CCB3C1FD5DCFDF91B3
:10046000CF91CFBFCF91189520914103222369F3FB
:1004700010913F03112309F049C034300AF448C0F9
:1004800030933F0320933C0310913D033BE0311B2D
:1004900030933D033DC000913F030130BCF50AE5B8
:1004A0004F7049F430912A0134FD33C000932A0182
:1004B000C8E1D3E032C0433059F0443091F030917C
:1004C000230334FD26C000932303C4E2D3E025C0F8
:1004D0003091580334FD1DC000935803C9E5D3E0A3
:1004E0001CC030912F0334FD14C000932F03C0E3D0
:1004F000D3E013C0052710E000C000000BB91AC0FC
:10050000052710E0221F1DC010E021C04AE502C0EF
:1005100032ED432FC4E1D0E032E01AB11C605B9AA7
:100520000BB11AB95CE020E865E320FF05270BB9A1
:10053000279517951C3FF0F66695B8F7B1F720FFA1
:1005400005270BB9279517951C3FD0F627951795CA
:1005500017FF052700001C3F0BB9B0F629913A950B
:1005600019F7037F10914003110FC651D0400BB90A
:1005700011F010933B0312E01CBB08601AB1137F0B
:10058000402F437F54E05A95F1F70BB91AB94BB994
:100590005CCF482F209111039091D80257E0291386
:1005A00002C080E0089530E0529FF001539FF00DAB
:1005B0001124E752FD4F8181681306C080814813E2
:1005C00003C085818111EECF2F5F3F4F2770E7CFAA
:1005D000FC01AC01465F5F4F8FEF91E321918227D1
:1005E00028E030E087FF09C0880F892721503109B2
:1005F000C9F7E417F50791F70895880FF7CFFC01C5
:100600009381933059F130F49130C1F09230F1F090
:1006100080E00895913209F440C09232C9F7848194
:100620009581009709F44AC0019791F788EA91E013
:100630009093D7028093D60282E308958DE892E0EA
:100640009093D7028093D60282E1089582E592E0EA
:100650009093D7028093D6028BE3089582818130F4
:10066000A1F0882351F0823099F68AE192E09093CC
:10067000D7028093D60286E208958EE492E09093AA
:10068000D7028093D60284E0089582E492E09093AA
:10069000D7028093D6028AE008958281882331F0C0
:1006A000813009F0B5CF8DE792E002C084E692E098
:1006B0009093D7028093D60289E008958AED91E065
:1006C0009093D7028093D60280E408950895809194
:1006D000D102089588E198E00FB6F894A895809328
:1006E00060000FBE90936000A895F894D8E0CEEF1C
:1006F00028E3299320E0299314BEFFCF08952FB754
:10070000F89460914102709142028091430290916D
:1007100044022FBF08959C01FC0132969FEF80E0B8
:100720004191461751F09F3F19F4411101C0982F94
:100730008F5F8630A9F79F3F09F40895290F311D77
:1007400097FD3A95F90162830895A3E0B0E0EBEAE2
:10075000F3E00C94E71820913D0230913E022817F7
:100760003907A1F090933E0280933D02E0913B0255
:10077000F0913C02309751F024E029839B838A83D7
:100780000680F781E02DCE01019609952396E2E0DF
:100790000C940319A3E0B0E0E0EDF3E00C94E7184B
:1007A0002091390230913A0228173907A1F090932D
:1007B0003A0280933902E0913B02F0913C0230977B
:1007C00051F023E029839B838A830680F781E02D03
:1007D000CE01019609952396E2E00C94031980E07E
:1007E00008958091DC01811103C081E08093DC01D8
:1007F00081E09091DC01913009F080E008950E9441
:10080000F103882359F0E0913B02F0913C023097CC
:1008100029F00190F081E02D0995089580E0089578
:10082000F894E82FE295EF70F0E031A1282F2F70B7
:1008300081E090E001C0880F2A95EAF7982F909503
:10084000932391A392A1892B82A3789408950F9367
:100850001F930E94F103882329F00E947F031F91B8
:100860000F9108950E947F030091F0011091F10112
:100870002091F2013091F301600F711F821F931FCD
:10088000EECF90910B0292FF06C0282F28712830DE
:10089000F9F4877F846093FF06C0282F28712831E0
:1008A000F1F4877E846120910C0220FF06C0382F6E
:1008B00038713830D9F4877F816021FF06C0282F36
:1008C00028712831D1F4877E816194FD877E089557
:1008D000282F24712430F9F68B7F8860DCCF282FF5
:1008E0002471243101F78B7E8861DDCF382F31717F
:1008F000313019F78E7F8860E0CF282F21712131A8
:1009000021F78E7E8861E1CF82389105B9F1B0F48C
:100910008133910509F47DC048F48932910509F4C9
:100920006DC08A32910509F47BC008958533910525
:1009300009F45FC08933910509F10895833E91055B
:10094000D9F138F4803E910529F1823E910579F183
:100950000895863E9105D9F1873E910509F43EC080
:10096000843E910541F520910C0221FF24C0809125
:100970000B0284FD19C087EE90E0089520910B02D0
:10098000237009F05AC020910C0223FF14C089E2A1
:1009900090E0089520910B0220FD38C030910C02A8
:1009A00030FF09C024FF43C090E080E0089520910B
:1009B0000B0222FDF7CF089520910B0222FD3AC0D1
:1009C00030910C0230FD39C024FFF5CFEDCF2091DE
:1009D0000B0223FFF0CF24FDE7CFCDCF20910B02F8
:1009E00023FD2EC030910C0231FFEECF84EE90E05B
:1009F000089520910B0225FFDECFC9CF20910B0275
:100A000025FD21C020910C0223FFD5CF89E390E082
:100A1000D2CF20910B0226FFCECF8AE290E008953C
:100A200020910B0226FFC7CF81E390E0089583EE6B
:100A300090E0089582EE90E0089580EE90E00895B1
:100A400086EE90E0089585E390E008957A3088F48A
:100A5000603178F4811110C080E1789FF001112499
:100A6000E60FF11DEE0FFF1FE859FF4F859194919E
:100A7000089580E090E0089581E0FCCF1F93CF932C
:100A8000DF930E948404EC01C11580E5D807F0F5DE
:100A9000C11580E4D80708F09CC0C03ED10520F500
:100AA000CD3CD10508F082C0C83AD10578F4C53AEA
:100AB000D10508F073C0C130D10519F1209709F1B3
:100AC000C430D105F0F4D0E0C0E01BC0C33CD10578
:100AD000D0F7C85AD0E0CC0FDD1FC25DDE4F0990C1
:100AE000D881C02DD4640DC0C11580E2D80708F0AC
:100AF000D1C0C11581E0D80708F05AC0C83ED10561
:100B000010F7CE01DF91CF911F910895C03682E595
:100B1000D80718F5C03482E5D80708F06BC0C0329A
:100B200082E5D80708F05FC0C11582E5D80708F450
:100B300097C02C2F2695269580E2289F900111249E
:100B40008C2F8370C1E0D0E002C0CC0FDD1F8A95EE
:100B5000E2F7C22BD32BDD68D4CFC03A82E5D807A9
:100B600060F4C03882E5D80708F459C0CF71D0E0EE
:100B7000DC2FCC27C46FD06AC4CFC03C82E5D80735
:100B800008F462C0C03E82E5D80708F09CCFDC2F95
:100B9000CC27CC27DF71C06FD06AB3CFC55AD0E065
:100BA000C55DDE4FC881D0E0D064ABCFD065A9CFA2
:100BB0008D2F0E944104182FCE0199270E94840492
:100BC000C12FD0E0DC2FCC27CC27DF71C82BD92B4D
:100BD00098CFCE0199270E948404CC27DF70C82BC0
:100BE000D92BD06A8ECFCF71D0E0DC2FCC27C16F4C
:100BF000D06A87CF2C2F26952695277080E2289FD4
:100C0000900111248C2F8370C1E0D0E002C0CC0F82
:100C1000DD1F8A95E2F7C22BD32BDC6872CF2C2F15
:100C200026952695277080E2289F900111248C2F0D
:100C30008370C1E0D0E002C0CC0FDD1F8A95E2F7DF
:100C4000C22BD32BDA685DCF8C2F8F710E944104A9
:100C5000C82FD0E0DC2FCC27CC27DF71D06251CF5A
:100C60008C2F8F710E94410455E0D695C7955A95F7
:100C7000E1F7CF70D0E0DC2FCC27282F30E084FFC5
:100C800005C044E0220F331F4A95E1F7C22BD32B56
:100C9000D06937CF8D2F8F710E944104182FCE015C
:100CA00099270E948404C12FD0E0DC2FCC27CC27C9
:100CB000DF71C82BD92BD2CF80959091CE0198238C
:100CC0009093CE0108958091CE019091CD01892B12
:100CD00080937E019091CC01992391F0892B809390
:100CE0007E0120E080E891E0FC013191CF013111DB
:100CF0002F5FF1E086389F07B9F721111092CC01E0
:100D0000E0913B02F0913C02309731F00280F38198
:100D1000E02D8EE791E0099508958091110390915F
:100D2000D802981301C008958F5F8770FACFCF92D1
:100D3000DF92FF920F931F93CF93DF936C0100918B
:100D40000A028091CF01082BC7E0D0E010E0FC2E12
:100D5000C8010C2E02C0959587950A94E2F780FD94
:100D60000CC02197A0F7F12C8F2DDF91CF911F910F
:100D70000F91FF90DF90CF900895B6018C2F0E94C5
:100D800026050E943E05019761F3EECFCF93DF93D6
:100D9000EC010E949706BE010E9426050E943E05B6
:100DA000DF91CF9108959A3080F5803170F540E160
:100DB000949F90011124820F932F911D682F6770CB
:100DC00023E0969587952A95E1F7FC01EE0FFF1F2A
:100DD000E80FF91FE857FE4F50E040E080E0219116
:100DE00030E0062E02C0369527950A94E2F721706E
:100DF0003327042E01C0220F0A94EAF7822B4F5F9B
:100E00005F4F4330510559F7089580E008959A30B7
:100E100098F5803188F540E1949F90011124820F6C
:100E2000932F911D282F277041E001C0440F2A9570
:100E3000EAF723E0969587952A95E1F7FC01EE0FF6
:100E4000FF1FE80FF91FE857FE4F90E080E070E0C9
:100E50005191DF0111979B01082E02C0369527950D
:100E60000A94E2F7217021952527242325272C9326
:100E700001968330910561F7089580930A020895E1
:100E800021E030E001C0220F8A95EAF72095809199
:100E90000A0282230E943D0708959091CB0180951C
:100EA00089238093CB01282F277069F4891759F083
:100EB00090910C0292FF07C08695869586950E94B8
:100EC00040071092CB01089521E030E001C0220FCD
:100ED0008A95EAF780910A02822B0E943D070895C5
:100EE0008093CF010895FC0124812223C1F08081E9
:100EF00091810E94C60692959F70963091F058F4A9
:100F0000925F9F70923058F4803F19F030F4883E21
:100F100030F481E008959A5FF4CF843FD1F380E00C
:100F20000895883EB0F3813FD1F7F3CF882321F0B5
:100F30000E945C060E9463060895882339F0909110
:100F4000CE01982B9093CE010E94630608958823CA
:100F500091F19CEF980F913A80F4E0E8F1E026E8F7
:100F600031E09191891303C0DF0111971C922E1774
:100F70003F07B9F70E946306089590E2980F9830F2
:100F800050F4877091E001C0990F8A95EAF7892F94
:100F90000E945C06EFCF9BE5980F933028F490E019
:100FA00080E00E94CA030895885A8B3120F490E0B3
:100FB00080E00E94A5030895CF93C82F8823B1F045
:100FC0008CEF8C0F813A00F5E0E8F1E086E891E0E3
:100FD000DF012D91C21761F08A179B07D1F76C2FA3
:100FE0008EE791E00E948B030E946306CF910895E3
:100FF0002191C21303C0DF0111971C928E179F0726
:10100000B9F70E946306EBCF80E28C0F883068F45A
:10101000C77021E030E001C0220FCA95EAF7809145
:10102000CE01822B8093CE01DFCFEBE5EC0FE330D6
:1010300040F4F0E0E55DFE4F808190E00E94CA033D
:10104000D5CFC85ACB3190F6EC2FF0E0EE0FFF1F52
:10105000E25DFE4F808191810E94A503C7CF80FF92
:1010600009C02E9A81FF08C05D9A82FF07C05B9A73
:1010700081E008952E98F6CF5D98F7CF5B98F8CF72
:1010800080914002882339F180E00E942F0810925D
:101090003F0288E190E020E40FB6F894A895809391
:1010A00060000FBE2093600083B7817F846083BFA0
:1010B00083B7816083BF7894889583B78E7F83BF21
:1010C0000FB6F894A89580916000886180936000C5
:1010D000109260000FBE0895A6E0B0E0E2E7F8E0ED
:1010E0000C94E61849835A8349815A819923A1F0C7
:1010F000222391F0CA010E949706182F682F898138
:101100009A810E94070769817A81812F0E942605B2
:101110002696E3E00C940219CA010E94D306182F08
:10112000F2CFB0E0A0E0E7E9F8E00C94DF187C0132
:101130005B016A018091EF0101E010E08A3010F458
:101140000AE010E0C1E0D0E0B501C701F601099561
:10115000811104C021960C171D072CF4CDB7DEB702
:10116000EAE00C94FB18CC9F9001CD9F300D300D20
:10117000112490E080E045E34A95F1F700000196E4
:1011800082179307C1F7E0CFCF93DF9380913F039E
:10119000835087FD67C090913D03CCE0D0E0C91B30
:1011A000D109CE5BDC4F90913C03903108F458C0DC
:1011B0009D3209F0F4C0883009F052C083EC80936E
:1011C00018038AE580932A011092D50288818076DF
:1011D00009F497C0803229F58981813099F48C8196
:1011E0009D81892BF1F488EC92E09093D702809353
:1011F000D60288E09F81911131C09E81981770F5C9
:10120000892F2CC0823041F487EC92E09093D70272
:101210008093D60281E0EECF8A3029F48B818093CF
:10122000C70280E0E7CF8930E1F78A819B81811591
:10123000924069F48C819D81892B49F481E08093EF
:10124000D4028E819F819093D3028093D2028881B1
:1012500087FFA3C08E8190E89093D50280932901E7
:1012600010923F0380912A0184FF3EC080912901A2
:101270008F3FD1F1C82F893008F0C8E0982F9C1B10
:10128000909329019091180328E8922790931803CE
:101290008823E9F08091D6029091D7022091D5025F
:1012A00026FF99C0FC012C2FA9E1B3E034913D93B6
:1012B00031962150D9F79C012F5F3F4F8FEF8C0F54
:1012C000820F932F911D9093D7028093D6026C2F9B
:1012D00089E193E00E948401CC5FCC3019F08FEF5C
:1012E00080932901C0932A0184E199B19C7031F463
:1012F0008150D9F71092400310923B03DF91CF91B8
:1013000008952A8110922103998191110AC01092A7
:10131000220321E233E082E03093D7022093D60209
:1013200069CF953029F42093400321E233E0F4CFD4
:101330009630C9F49B81913051F4CE010E94FF0296
:1013400090E49093D5028F3F09F481CF53CF923030
:10135000A1F3933091F3913281F3923271F390E4DF
:101360009093D50247CF983089F0993019F42093A3
:10137000D002DBCF9A3071F09B30B9F69BE49093AA
:1013800024039093590390933003CFCF20ED32E0A4
:1013900081E0C2CF21E233E0FBCF8FEF5CCF8091C1
:1013A000D50287FF5DCF8091D2029091D302892B25
:1013B00071F08091D402813051F488818093D10200
:1013C0001092D3021092D2021092290149CF8EE1DD
:1013D00080932A0145CFDC012C2FE9E1F3E03D9118
:1013E00031932150E1F767CF1F93CF93DF93E82F1D
:1013F000792F162FEA01888184FF1CC0298188E893
:1014000028272983CE010296DC012E2F372F512F5A
:101410005E0FF90121912D939F01452F4E1B14164C
:10142000C4F3612F0E9484011C5F1883DF91CF9168
:101430001F9108958AE58883E5CF2091580324FF02
:1014400005C048E553E063E00E94F4090895CF9396
:10145000DF93CAE0D0E08091230384FF1CC0809119
:10146000C5029091C602981799F028E0829FC001AA
:10147000112443E253E068E08B5B9D4F0E94F40926
:101480008091C50290E001968F7099278093C502E4
:10149000DF91CF9108950E94C4088FE99FE00197E2
:1014A000F1F700C000002197B1F6F2CFCF93DF93A0
:1014B000EC01A091C602B0E0CD0101968F70992792
:1014C0002091C502281779F093E0AA0FBB1F9A95C7
:1014D000E1F7AB5BBD4F98E0FE0101900D929A954C
:1014E000E1F78093C6020E94C4080E94270A88E0A0
:1014F000FE01A8ECB2E001900D928A95E1F7DF9130
:10150000CF91089590910C0292FB222720F9281781
:1015100079F080FB92F990930C0260910B0270912C
:101520000C0284E090E00E94661982E00E944D0760
:1015300008951092CE01E0E8F1E086E0DF011D920F
:101540008A95E9F790E080E00E94CA0390E080E08D
:101550000E94A5031092CD010E94630608950E9487
:10156000990A2FEF84E39CE0215080409040E1F7FE
:1015700000C0000088E198E00FB6F894A895809329
:1015800060000FBE90936000FFCFB0E0A0E0EBECF6
:10159000FAE00C94DA18582E6901580198E0890293
:1015A000E00111244115510561F4FE01E050FF4FA7
:1015B00086819781892B51F5A114B104D9F581E079
:1015C00020C0FE01E050FF4FE080F12C4E155F057A
:1015D00008F47A01FE01E050FF4F81809280C4013F
:1015E0008C599C4F3C01A7010E94211904E610E090
:1015F0009701A301682D82E30E94A01797FFD5CF22
:1016000080E0CDB7DEB7EFE00C94F618509264039B
:1016100060910101709102012091000130E0AB0165
:101620004C595C4F04E610E082E30E94A01797FF3C
:10163000C3CFE6CFFE01E050FF4FE380F12CAE14A4
:10164000BF0408F47501C050DF4F6C817D81AB0190
:101650004C595C4F04E610E0970182E30E94C717E3
:1016600097FDCECF6C817D816C597C4FA701C6015F
:101670000E942119A4CFA4E0B0E0E1E4FBE00C94C7
:10168000E5184091EB015091EC016091ED017091F2
:10169000EE012FB7F8948091410290914202A091FF
:1016A0004302B09144022FBF841B950BA60BB70BCE
:1016B00011E084369105A105B10518F10E942704B7
:1016C0006E5F7F4F8F4F9F4F69837A838B839C839D
:1016D00010E000E030E020E044E050E0BE016F5F49
:1016E0007F4F83E00E94C50A182F882351F00E9483
:1016F0007F036093EB017093EC018093ED01909375
:10170000EE01812F2496E4E00C940119ABE0B0E0E7
:10171000ECE8FBE00C94E3187B0101E010E09E0193
:10172000255F3F4F50E040E070E060E081E00E94C4
:10173000C50A182F882309F44FC04091E701509142
:10174000E8016091E9017091EA012FB7F894809166
:10175000410290914202A0914302B09144022FBFF6
:10176000841B950BA60BB70B84369105A105B1051B
:1017700038F486E693E00E94E8029B85891761F1C0
:101780000AE010E09E012F5F3F4F50E040E070E024
:1017900060E082E00E94C50A082F86E693E00E947E
:1017A000E80211E09B85981310E0102301F10E94DC
:1017B0007F036093E7017093E8018093E9019093C0
:1017C000EA018AE0FE013196ADEDB1E001900D92A3
:1017D0008A95E1F711E00BC08AE0E6E6F3E0DE016E
:1017E000119601900D928A95E1F71111EACF8AE0E6
:1017F000EDEDF1E0D70101900D928A95E1F7812F8F
:101800002B96E6E00C94FF18A8E0B0E0EAE0FCE0DC
:101810000C94E71866EE7EEF90E080E00E94661977
:1018200060E082E090E00E94481960E083E090E090
:101830000E9448191092CF0160E074E184E090E0CA
:101840000E94661960E086E090E00E9448196FEF00
:1018500087E090E00E94481940E050E0BA0188E03B
:1018600090E00E945A1960E084E290E00E944819DA
:1018700060E087E190E00E94481960E08CE090E031
:101880000E94481960E08DE090E00E94481919829A
:101890001A821B821C821D821E821F82188648E0CB
:1018A00050E068E170E0CE0101960E94381940E0F6
:1018B00050E0BA0180E290E00E945A1940E050E006
:1018C000BA018FE090E00E945A1940E050E0BA015E
:1018D00083E190E00E945A192896E2E00C940319E3
:1018E00078941F921FB61F9211248F939F93AF93EA
:1018F000BF938091410290914202A0914302B09126
:1019000044020196A11DB11D8093410290934202B1
:10191000A0934302B0934402BF91AF919F918F91E6
:101920001F901FBE1F9018959C014FB7F89480918F
:10193000410290914202A0914302B09144024FBFF4
:10194000821B930B08952FB7F894809141029091D8
:101950004202A0914302B09144022FBF08950F9319
:101960001F93CF93DF93C62FD42F022FFC018581C5
:101970008823A9F0609314030E94A30C909313038F
:1019800080931203C77081E001C0880FCA95EAF7FF
:101990000E949D07DF91CF911F910F910895809133
:1019A0001403681335C080911203909113030E94B1
:1019B000940C883C910560F510E21D0FCD17B9F02D
:1019C00080E28C0F883040F4C77081E001C0880F3E
:1019D000CA95EAF70E949607183048F481E09D2FD7
:1019E000977001C0880F9A95EAF70E949D07802F93
:1019F0000E94DC07802F0E94A707183058F6D77086
:101A000081E001C0880FDA95EAF70E949607C2CFFD
:101A1000C77081E001C0880FCA95EAF7F6CFB0E041
:101A2000A0E0E5E1FDE00C94DF188C01FC0184816D
:101A3000882341F121E04081518162817381958148
:101A40000E946C08EC01FC01E851FC47E730F1050D
:101A5000A8F5E258F64E0C940E1926E241EE61EE1E
:101A6000C8010E94AF0C8091CB01877059F0F8013A
:101A70008581882339F080910C0282FF03C082E0C7
:101A80000E944D07CDB7DEB7EAE00C94FB1827E2C1
:101A900045EE65EEE5CF26E241EE60EEE1CF27E2CE
:101AA00045EE64EEDDCF26E241EE62EED9CF27E2CD
:101AB00045EE66EED5CF28E241E0EBCFF801858117
:101AC000882309F455C310921403CE0190578397CD
:101AD00008F038C384E090E00E94321990930C0221
:101AE00080930B02FE01E150F047E232F10520F451
:101AF000EB57F64E0C940E1980910B028160809387
:101B00000B0295C080910C02886080930C028FC0FC
:101B100080910B028260F3CF80910B028460EFCF43
:101B200080910B028860EBCF80910C028160EDCF39
:101B300080910C028260E9CF80910B028061DFCF3F
:101B400080910B028062DBCF80910B028064D7CF43
:101B50000E94990A80910B028068D1CF80910B027C
:101B60008C60CDCF80910C028360CFCF80910B022F
:101B70008E7FC5CF80910C02877FC7CF80910B02EB
:101B80008D7FBDCF80910B028B7FB9CF80910B02EF
:101B9000877FB5CF80910C028E7FB7CF80910C02EA
:101BA0008D7FB3CF80910B028F7EA9CF80910B02E6
:101BB0008F7DA5CF80910B028F7BA1CF0E94990AC8
:101BC00080910B028F779BCF80910B02837F97CF01
:101BD00080910C028C7F99CF80910B0282FB992718
:101BE00090F921E0922790FB82F990FB83F987CF4F
:101BF00080910C02982F909591708E7F892B90FB8D
:101C000081F983CF90910B02892F8F7B96FF80649F
:101C100076CF0E94990A90910B02892F97FB87F942
:101C200080586DCF61E08EE090E00E94481960918D
:101C30000B0270910C0284E090E00E9466190E94F1
:101C4000990A11CF60E0EFCF90910B02892F8F7E20
:101C500094FF806154CF90910B02892F8E7F90FF6B
:101C600081604DCF90910C02892F877F93FF886010
:101C70004CCF85E386C20E94990AFFEF24E33CE043
:101C8000F15020403040E1F700C000000E946A039C
:101C9000EACE6FEF7FEF90E080E00E9466190E942D
:101CA000AF0A80910C0282FB882780F991E0892796
:101CB0000E94820AF8018581C081D181882309F4BC
:101CC0004AC0CE010E949706F82E682FCE010E94CE
:101CD0000707BE018F2D0E9426050E943E05D82FC2
:101CE000C92FA82EF801C580B680B2943FE0B32278
:101CF0008091CB018770F1F0EC2CCC20E1F0892FA2
:101D0000807F803451F080E28D0F883098F0B110E0
:101D100004C0892F807E803269F080910C0282FF9E
:101D200009C082E00E944D078091CB018770EE24AC
:101D3000E3948111E12CDC2ED2942FE0D222FBE03F
:101D4000FD1508F46DC0ED2DF0E0E955F64E0C944C
:101D50000E1980E0ADCFCE010E94D306F82EB9CF88
:101D60002C2F2F70F22EC07F19F0F29490EFF922F1
:101D7000CC20B9F0FF2069F080E28D0F883010F0A0
:101D8000A11009C08091CE01F82AF092CE010E94E4
:101D900063068D2F43C08091CD01F82AF092CD01CA
:101DA000F6CF8D2F0E94A707FF20D1F1D05ED8304B
:101DB00010F0A11004C08F2D0E945C0606C0F094A4
:101DC0008091CD01F822F092CD010E94630628C0D7
:101DD0003C2F3F70F32EC07FC03219F0F29480EF99
:101DE000F822AA2059F081E0A81609F47BC0CC2083
:101DF00009F487C0BB2009F449C0CBCF80910C0205
:101E000082FD40C0CC20C1F1FF2039F08091CE018D
:101E1000F82AF092CE010E94630680E00E94DC075F
:101E20002D2D2850330B2430310520F40E94FF0360
:101E30000E942F08EE20A9F08091CB0180FD11C0F7
:101E4000F80115828695869586950E946407C801DB
:101E50000E940F0D8091CB018695869586950E94F4
:101E6000400720E0F80140815181628173818481C3
:101E700095810E946C0806CE80E00E94A707FF2093
:101E800079F299CFCC20A1F0B11004C08F2D0E941F
:101E90009D07C6CF91E0B912C3CF8091CC019F2D91
:101EA0009823F91609F4BCCFF82AF092CC01B8CFE8
:101EB000B110B6CF8F2D0E9496079091CC018F2D37
:101EC000892329F08F2D809589238093CC018091DF
:101ED00087019F2D982309F4A3CFF094F822F09264
:101EE00087019ECFCC2029F0E5E0EB1508F498CFD0
:101EF000CDCFF4E0FB1508F493CF8F2D0E94960709
:101F00008FCFBB20D1F329E3A21209C03FEF87EEA8
:101F100093E0315080409040E1F700C000008D2FE9
:101F20000E94A7077DCF8C2F86958695837069F0D8
:101F3000813009F075CF8D2F9C2F9370C11002C096
:101F400080E090E00E94A5036BCF8D2F9C2F9370B3
:101F5000C11002C080E090E00E94CA0361CF8C2FC4
:101F6000837089F5C1105CCF4D2F4295469547701F
:101F7000440F440F8D2F8F70042E01C0880F0A94D8
:101F8000EAF72D2F2071D4FF07C02FE030E001C009
:101F9000220F4A95EAF72095C695C695C370C230C0
:101FA00069F050F43091CF01C13029F0822B8323A6
:101FB0000E94700735CF832B822BFACF282B80917C
:101FC000CF018227F5CF8695CC2011F08C2F817020
:101FD000882309F425CF4D2F429546954770440F2D
:101FE000440F8D2F8F70042E01C0880F0A94EAF7DA
:101FF0002D2F2071D4FF07C02FE030E001C0220F49
:102000004A95EAF72095C695C695C370C23069F027
:1020100050F430910A02C13029F0822B83230E94B0
:102020003D07FECE832B822BFACF282B80910A020C
:102030008227F5CFCF70CC2029F08C2F0E94640727
:102040008D2F25CF8D2F0E9496078C2F0E94400741
:10205000E7CE8D2FE2EFAE16A9F1EA1570F0F0EFA2
:10206000AF16D1F021EFA21691F0CC2009F45AC09E
:10207000B1108FCE8C2F8F7129C033EFA31649F189
:1020800094EFA912F2CF80910C0282FD2DC08C2F0B
:102090008F71CC20D9F21AC0CC2079F0E4E0EB1596
:1020A00008F4BECECF7181E090E001C0880FCA95E0
:1020B000EAF790910A028927B2CFF5E0FB1508F400
:1020C000AFCEF0CF8C2F8F71C110C0CF0E946407AC
:1020D000A7CE80E0CC2009F4A2CFCF7181E001C06F
:1020E000880FCA95EAF79BCFCC2089F0CF718C2F4F
:1020F0000E94640780910C0282FF07C028E0C29F03
:10210000C001112483608093CB018C2FDFCF81E04D
:102110000E944D0731E03B1508F082CE82E00E941C
:102120004D077ECEBB2059F0893309F0F8CE8FEFF2
:1021300097EEE3E081509040E040E1F7EECE8C2F47
:102140008F7184CFC631FCE7DF0749F58091CE015E
:102150008A7A91E009F490E09093860169E2811116
:1021600065E38EE791E00E948B030E9463067BCCBF
:10217000C631DC4709F09ECD80918601811179CD71
:1021800089E2E0E8F1E026E831E09191891303C0AB
:10219000DF0111971C922E173F07B9F7E6CFC33026
:1021A0003CE7D30709F475CD50F4C1159CE7D90776
:1021B00009F461CDC130DC4709F471CD7BCDCB355D
:1021C000FCE7DF0709F4C5CDCC352CE7D20709F4CD
:1021D00068CDCA35DC4709F06DCD81E069CDCF937C
:1021E000DF938091CA01807F09F04DC08091C901C1
:1021F000882309F448C0E09111035091D802C0919E
:10220000C501D091C4016091C6017091C70147E03A
:102210005E17C9F18E2F90E0E49FF0011124E75280
:10222000FD4F2481222391F1489FF001499FF00D39
:102230001124DF01A752BD4F11962C9111972C1339
:1022400025C02C912D1322C015962C911597211184
:102250001DC012962D913C91261B370B283C310551
:10226000A8F48091CA018F7080618093CA01E15205
:10227000FD4F80818F708061808384EC91E00E94AB
:102280000F0D0E948D06DF91CF910895FC013196CC
:10229000E770BECFA4E1B0E0E0E5F1E10C94DD1819
:1022A0008C0186E0F801DE011F9601900D928A955F
:1022B000E1F7F8018481E58094ECA92E91E0B92E34
:1022C0009091C801911128C0882319F1EE20F1F0F6
:1022D000C8010E947307F82E8823C1F087E0F80137
:1022E000D50101900D928A95E1F78091C801813066
:1022F00031F48091C4019091C5010E94C6060E94EC
:10230000EF108F2D6496ECE00C94F918C8010E9430
:102310000F0DFF24F394F5CFD080C180828093808D
:10232000F090C9012091C6013091C701A401421B60
:10233000530BFF2009F4D9C0483C510508F092C066
:102340008823F9F29091C5018091CA01282F207F3E
:1023500009F056C0C91214C09091C401D91210C01E
:10236000E11048C08F7080618093CA0184EC91E0D5
:102370000E940F0D8091CA01F8018683F12CC1CF14
:10238000E11038C06C2D8D2D0E94C9026C2D8D2D51
:102390000E94C902E82E8111F1CFDF86C88A8F859D
:1023A00098890E94C606292F22952F70243058F450
:1023B0009F70223088F0992399F0F8019681907FE0
:1023C00079F4FE2C9ECF2A5F2F70223068F0C8016E
:1023D0000E940F0DEF2CF5CF992311F0882389F37C
:1023E000805E883070F3F3CF803F58F3815F833095
:1023F00070F7E7CF8091CA0181608093CA01BECF98
:10240000C91207C09091C401D91203C0EE2009F48B
:102410008DC0C8010E947307882309F477CFEE208E
:1024200009F474CF8091CA01803288F02091C401F0
:102430003091C501398728879B868A869091C8018B
:102440009C871D868E87CE0108960E940F0D87E01F
:10245000F801A4ECB1E001900D928A95E1F70E9499
:10246000EF1057CF9091CA01292F207F51F484ECAF
:1024700091E00E940F0D87E0F50111928A95E9F72E
:102480007DCF882309F43DCF8091C5018C1110C008
:102490008091C401D8120CC0E1100AC09683C80113
:1024A0000E940F0D87E0F50111928A95E9F729CF77
:1024B000C8010E947307882309F428CFEE2009F48D
:1024C00025CF8091CA01803210F22091C401309151
:1024D000C5013A8329839C828B829091C8019D8398
:1024E0001E828F83CE010196B0CF483C5105D0F6B5
:1024F000882309F40ECFFE2CEE2009F407CF80913B
:10250000C5018C1120C08091C401D8121CC08091DB
:10251000CA0180FD0FC0982F907F61F08683903FA5
:1025200031F0982F907F905F8F70892B8683C80140
:102530000E940F0D87E0F801A4ECB1E001900D922C
:102540008A95E1F7DECEC8010E94730781117FCF23
:102550008091CA0181608093CA01C8010E940F0D59
:10256000D0CEABE1B0E0E7EBF2E10C94E5184E8B96
:102570005F8B688F798F8A8F9B8F192F91111092A3
:10258000CD011D8A86E0FE017696DE011F96019040
:102590000D928A95E1F70A8D002341F021E04F85E5
:1025A000588969897A89C8010E946C080B8B1C8B39
:1025B00087E0FE013F96DE01189601900D928A9504
:1025C000E1F7CE0108960E944A1181110CC087E004
:1025D000FE013896DE01119601900D928A95E1F781
:1025E0008C8581110BC017E0809111039091D80266
:1025F000891331C06B96E4E00C9401192091D80244
:1026000030E0C9010196877099274091110348175E
:10261000190699F097E0929FD001939FB00D112475
:10262000A752BD4FFE01319601900D929A95E1F7A8
:102630008093D8020E948D06D6CF0E94990A1092EC
:10264000D8021092110387E0E4ECF1E0DF011D9263
:102650008A95E9F7C8CF819FC001112487529D4F09
:102660000E944A11882331F28091110390E0019673
:102670008770992780931103B7CFAEE1B0E0E3E410
:10268000F3E10C94D9188E010F5F1F4F84E1F8011C
:1026900011928A95E9F756E6E52E51E0F52E68018C
:1026A0006BE6462E61E0562E66246394712CEBE7B0
:1026B0008E2EE1E09E2EF70181917F018F3F09F47C
:1026C00045C0F894E82FE295EF70F0E021A18F70FB
:1026D000A30102C0440F551F8A95E2F7CA01922F49
:1026E000982B91A392A18095892382A3789400C00E
:1026F000EBE6F1E021E030E0B12CA12C41914F3F1D
:1027000009F46DC0A42FA295AF70B0E090968C91A3
:1027100090E04F7002C0959587954A95E2F780FD4D
:102720005EC0C901A82AB92A220F331F8E169F0640
:1027300029F7F701319780818F3F11F00E94100433
:1027400050EA5A95F1F7F601B182A082F2E0CF0E7D
:10275000D11C4E145F0409F0AECF44E150E0B80143
:1027600084EF91E00E941419009741F024E1F801F0
:10277000A4EFB1E001900D922A95E1F700910902D2
:1027800010E0000F111F035F1D4F892B59F181E0ED
:102790008093D4010E94A30C9093D3018093D20123
:1027A0008091D2019091D3010E94940C0597F0F092
:1027B0004AE050E064EF71E0C8010E941419B12CA6
:1027C000892B51F08AE0E4EFF1E0D80101900D92FD
:1027D0008A95E1F7BB24B3941092D40108C090E02D
:1027E00080E0A0CF8091D4018111DACFB12C0E947A
:1027F000F103F82E882309F46DC06E0125E1C20EA5
:10280000D11C8AE0F60111928A95E9F78091EF01D7
:102810008A3060F546E85BE0B601C8010E94910885
:10282000882309F446C04BE35BE0B601C8010E946F
:1028300091088823F1F11092EF018091080290E055
:10284000880F991F4AE050E0B601835F9D4F0E94B8
:10285000141921E02093DB01892BE1F4F12C1F2DC9
:10286000812F8B296E96E0E10C94F5188091D501AB
:102870009091D6010E94940C843F914058F680912B
:10288000DB01882359F38AE0F60111928A95E9F772
:102890001092DB01A0910802B0E0AA0FBB1FA35F5A
:1028A000BD4F8AE0FE01759601900D928A95E1F781
:1028B000D6CF8091EF018F3F31F08F5F8093EF0192
:1028C0008A3008F4BACF0E94A30C9093D60180936B
:1028D000D501D5CF8AE0F801A6E6B3E001900D92CC
:1028E0008A95E1F786E693E00E94E802809365030B
:1028F000C0907003D0907103E0907203F090730366
:102900008091D7019091D801A091D901B091DA01BD
:10291000C816D906EA06FB0611F410E0A1CFC09252
:10292000D701D092D801E092D901F092DA010E9449
:10293000F103182F8111F1CF0E947F03C61AD70A25
:10294000E80AF90AC092F001D092F101E092F20196
:10295000F092F30185CFA6E0B0E0E1EBF4E10C9456
:10296000E5180E94A30C8C018091D0019091D101B7
:102970008017910781F019821A820E94A30C682F98
:1029800049815A81792F80E090E00E94B112109322
:10299000D1010093D0012696E4E00C9401191F9216
:1029A0001FB61F9211248F939F93AF93BF93809173
:1029B0003F02811113C08091410290914202A09187
:1029C0004302B09144024196A11DB11D8093410282
:1029D00090934202A0934302B0934402BF91AF91FF
:1029E0009F918F911F901FBE1F90189500D000D00F
:1029F00000D0CDB7DEB70E94A30C9093380280932D
:102A0000370280E890E00FB6F894809361009093CD
:102A100061000FBE8FEE93E090937D0180937C0167
:102A200080916900886080936900E99A8BE48093C3
:102A3000240380935903809330038AE58093230312
:102A40008093580380932F03539A80E0815009F0BC
:102A5000E2C05398789482E084BD93E095BD9AEFEC
:102A600097BD80936E001092F0011092F1011092C8
:102A7000F2011092F30190E080E00E943219863E4C
:102A80009E4F11F00E94040C8EE090E00E942A19E3
:102A900091E0811101C090E0909320010E94F10328
:102AA00081110E94BA16809120018091200195E049
:102AB000811190E09093090285E0891B80930802C0
:102AC00006E611E0F80181918F018F3F11F00E941D
:102AD0001004F1E00B361F07A9F70BE611E0D8014F
:102AE0008D918D018F3F11F00E941004B1E00B37E2
:102AF0001B07A9F784E1EDE0F2E0DF01282F1D922A
:102B00002A95E9F7E4EFF1E0DF011D928A95E9F7F4
:102B100090E080E00E943219863E9E4F11F00E94A4
:102B2000040C82E090E00E942A198093210284E044
:102B300090E00E94321990930C0280930B020E9445
:102B40003D13EFE3FCE93197F1F700C000000E946C
:102B50003D1380910D0280FF08C06FEF7FEF90E082
:102B600080E00E9466190E946A0383E090E00E9460
:102B70002A190E947007269A2E98559A5D98539AA2
:102B80005B980E94F103811103C082E30E94101838
:102B900081E291E090933C0280933B02FFEF20E7BB
:102BA00032E0F15020403040E1F700C000004CE03E
:102BB000242E56E3652E52E0752E80913E0310912F
:102BC0004002882381F110923E030E94A30C90934F
:102BD000380280933702112309F467C01092400233
:102BE0000E94990A0E94FF030E942F0880914002D0
:102BF000882309F45AC00E9440080E943D13EDE06A
:102C0000F2E081919191892BB9F5A1E2B2E0AE1782
:102C1000BF07B9F7D2CFA895AFE9BFE01197F1F799
:102C200000C0000013CF1111E6CF809137029091C0
:102C300038020E94940C0697C0F181E08093400214
:102C40000E944008D8CF2817390709F04FC00E94CA
:102C5000AB140E94F1030E94FF03182F80913602EB
:102C6000181739F0109336020E947F03812F0E94BB
:102C70002F080E94270AA1CFF8949AB15B9A892F56
:102C80008C608AB98BB182258BB92FE738E381E05C
:102C9000215030408040E1F700C000008BB1822518
:102CA0008BB99AB95B98789488CF0E94C4088091B8
:102CB000D0028823F1F28091230384FFDACF0E94AF
:102CC0003D1322E2A22E22E0B22E3DE0832E32E01E
:102CD000932ED401F501219131918D919D916E1624
:102CE0007F0609F4B0CF28173907A9F30E94F10332
:102CF000382E512CF401019111914F01D501CD9045
:102D0000DD905D01C016D10671F1C026D126412C9F
:102D1000EE24E394F12CC6018E219F21892BC9F06A
:102D20003320B9F049825A820E94A30C9C838B8382
:102D3000B1E0BD8391E098012E213F21232B09F4BE
:102D400090E09E8349815A816B817C818D810E94B4
:102D5000B1124394EE0CFF1CE0E14E12DCCFF50102
:102D60003297118300835394FAE05F12C3CF0E941D
:102D700027046FCF1092B90088E48093B8000895BB
:102D8000B0E0A0E0E6ECF6E10C94DE18B82EEB0122
:102D90000E94A30C6C01EE24E394F12CC431D10504
:102DA00060F025E0E22EF12CCF3FDC0731F0CE01C0
:102DB00064E170E00E94C3187B0184EAA82E94E8C5
:102DC000992E1092BC00A092BC000E94A30C8C0112
:102DD0008091BC0087FF0DC08091B900887F88304A
:102DE000F9F08091B900887F8031D1F00FEF1FEFAB
:102DF00008C0C8010E94940CE816F90648F70EEFC7
:102E00001FEFCF3FDC07E9F2C6010E94940CC81700
:102E1000D907B8F6C801CDB7DEB7EBE00C94FA18C5
:102E2000B092BB009092BC000E94A30C8C018091D8
:102E3000BC0087FF0AC08091B900887F883111F0FB
:102E40008034A1F610E000E0E5CFC8010E94940CA8
:102E5000E816F90660F7D3CF0F931F93CF93DF9354
:102E6000EB018093BB0084E88093BC000E94A30C1C
:102E70008C018091BC0087FF11C02091B900287F90
:102E800081E090E0283211F490E080E09195819506
:102E90009109DF91CF911F910F910895CF3FDC07EA
:102EA00041F3C8010E94940CC817D90710F78EEFA0
:102EB0009FEFEFCF0F931F93CF93DF93EC0184EC41
:102EC0008093BC000E94A30C8C018091BC0087FF02
:102ED00008C08091BB0090E0DF91CF911F910F91CE
:102EE0000895CF3FDC0789F3C8010E94940CC817EE
:102EF000D90758F78EEF9FEFEFCF0F931F93CF9324
:102F0000DF93EC0184E88093BC000E94A30C8C0149
:102F10008091BC0087FF08C08091BB0090E0DF91EA
:102F2000CF911F910F910895CF3FDC0789F3C8011E
:102F30000E94940CC817D90758F78EEF9FEFEFCF78
:102F4000B0E0A0E0E6EAF7E10C94E118C62F6A01D0
:102F50007901B8010E94C01697FD0CC0B8018C2FF2
:102F60000E942C17E601EC0CFD1CCE15DF0511F0BC
:102F700097FF08C024E92093BC00CDB7DEB7E8E096
:102F80000C94FD18B80189910E942C17EECFB0E087
:102F9000A0E0EDECF7E10C94E118F82EE62EEA0142
:102FA0006901B8010E94C01697FD15C0B8018E2DA9
:102FB0000E942C1797FD0FC0B8018F2D81600E94D1
:102FC000C016F12CE12C21E0C21AD108EC14FD044A
:102FD000E0F497FF0DC024E92093BC0018161906F1
:102FE00014F490E080E0CDB7DEB7E8E00C94FD1873
:102FF000C8010E945A1797FD04C0FE01EE0DFF1D87
:1030000080832FEFE21AF20AE1CF97FDE4CFC801E7
:103010000E947D1797FDDFCFCC0DDD1D8883DBCFB0
:103020008093BA0085EC8093BC0008951F920F92A4
:103030000FB60F9211242F933F934F935F936F938B
:103040007F938F939F93AF93BF93CF93DF93EF9330
:10305000FF938091B900887F8038F9F038F4882395
:1030600009F48EC08036A1F081E035C0883A11F0B5
:10307000883BD1F7E0911603F0E0EC59FC4F8081DA
:103080008093BB00809116038F5F80931603ECCF73
:103090001092150310921703E7CF80911503811149
:1030A00039C08091BB008093160380911603803154
:1030B00078F11092160380E091E09093150340910F
:1030C000160320910101309102014217130609F005
:1030D00090E0909317039091BC008295880F880F21
:1030E000807C892B85688093BC00FF91EF91DF91F4
:1030F000CF91BF91AF919F918F917F916F915F9190
:103100004F913F912F910F900FBE0F901F901895E8
:1031100081E0D2CFE0911603F0E08091BB00EC5942
:10312000FC4F8083809116038F5F809316038091FC
:103130001703882309F498CFC0916401D0916501E9
:10314000A88188E0A802D0011124A050BF4F169694
:10315000ED91FC911797309709F486CF14962D9135
:103160003C9115972C0F3D1F11966D917C911297F4
:103170006C0F7D1F13964C9113978C91099574CF0A
:103180001092BC0071CFAA1BBB1B51E107C0AA1F44
:10319000BB1FA617B70710F0A61BB70B881F991FF8
:1031A0005A95A9F780959095BC01CD0108952F926D
:1031B0003F924F925F926F927F928F929F92AF92C7
:1031C000BF92CF92DF92EF92FF920F931F93CF9314
:1031D000DF93CDB7DEB7CA1BDB0B0FB6F894DEBFAB
:1031E0000FBECDBF09942A88398848885F846E84D1
:1031F0007D848C849B84AA84B984C884DF80EE801B
:10320000FD800C811B81AA81B981CE0FD11D0FB623
:10321000F894DEBF0FBECDBFED010895EE0FFF1F86
:103220000590F491E02D0994FB01DC0104C08D911F
:103230000190801921F441505040C8F7881B990B28
:103240000895FB01DC0102C001900D9241505040F5
:10325000D8F70895F999FECF92BD81BDF89A9927C4
:1032600080B50895A8E1B0E042E050E00C946E19FA
:10327000DC01A40FB51F4150504048F0CB01840F32
:10328000951F2E910E94491941505040D0F7089542
:10329000262FF999FECF92BD81BDF89A019700B40F
:1032A000021639F01FBA20BD0FB6F894FA9AF99AAF
:1032B0000FBE08950396272F0E9449190E944819AE
:1032C000252F0E944919242F0C9449190196272F64
:1032D0000E9449190C944819DC01CB01FC01F999B1
:1032E000FECF06C0F2BDE1BDF89A319600B40D9252
:1032F00041505040B8F70895F894FFCF4B0D4F0D53
:103300002D0D470D530D570D5B0DB60D2B0EBE0D3C
:10331000880D8C0DC20D900DC60DD20D9C0D240E86
:10332000A00DD60DA40DDA0D020EA80DDE0D090EAE
:10333000AE0DE40DEC0D940DCA0D980DCE0DB20D31
:10334000E80DF80D120E220E820DBA0D320EB00EDF
:10335000B00EE80EE80E930F100F100F100FAF0F06
:063360001A1029102910CB
:103366000100000000000000000000010100000054
:103376000000000A02000000040C0000000000002B
:10338600016703560A66031D0AFF5A818283E2001B
:10339600E900EA00B500B600B700CD008301CC0015
:1033A6008A019201940121022302240225022602A7
:1033B60027022A02B300B4006F0070009F01CB0100
:1033C6009F02A0026403929394959697303132330C
:0C33D600343560616263646566909100AC
:00000001FF
