:100000000C948F010C94D7190C94AC010C94AC0196
:100010000C94AC010C94AC010C94AC010C94AC01AC
:100020000C94AC010C94AC010C944C160C94081676
:100030000C9449170C94AC010C94AC010C94AC01D9
:100040000C94AC010C94AC010C94AC010C94AC017C
:100050000C94AC010C9425170C94AC010C94AC01DD
:100060000C94AC010C94AC010C94AC010C94AC015C
:100070000C94AC010C94AC010C94AC010C94AC014C
:100080000C94AC010C94AC010C94AC010C94AC013C
:100090000C94AC010C94AC010C94AC010C94AC012C
:1000A0000C94AC010C94AC010C94AC0135001E0016
:1000B0001F0020002100220023000000000000009B
:1000C0000000000000000000000000002B001400F1
:1000D0001A000800150017001C00000000000000B6
:1000E00000000000000000000000000039000400D3
:1000F0001600070009000A000B00000000000000C5
:10010000000000000000000000000000E10000000E
:100110001D001B0006001900050000000000000083
:100120000000000000000000000000000000E000EF
:10013000E300E2002C0000000000000000000000CE
:1001400000000000000000000000000000000000AF
:100150002A002E002D002700260025002400000084
:10016000000000000000000000000000000000008F
:10017000310030002F00130012000C0018000000A6
:10018000000000000000000000000000000000006F
:1001900000002800340033000F000E000D000000A6
:1001A00000000000000000000000000000005200FD
:1001B0000000E50038003700360010001100000094
:1001C0000000000000000000000000004F0051008F
:1001D0005000E4006500E600000000002C00000074
:1001E0000000000000000000000000000501098080
:1001F000A101850319012AB700150126B700950151
:1002000075108100C0050C0901A101850419012A9E
:10021000A002150126A002950175108100C00501FC
:100220000906A1018506050719E029E71500250142
:100230009508750181020507190029EF15002501B0
:1002400095F07501810205081901290595057501CB
:100250009102950175039101C005010906A10105EF
:100260000719E029E7150025019508750181029518
:1002700001750881010507190029FF150026FF00F7
:100280009506750881000508190129059505750170
:100290009102950175039101C009023B0002010022
:1002A000A0FA090400000103010100092111010065
:1002B0000122400007058103080001090401000133
:1002C00003000000092111010001226D00070582D1
:1002D000032000011201000200000008EDFE0000F2
:1002E0000001010200012603410073007300690050
:1002F0007300740069007600650020004B00650003
:10030000790062006F0061007200640000000A035F
:10031000460045004900540000000403090411246C
:100320001FBECFEFDAE0DEBFCDBF11E0A0E0B1E04D
:10033000E2EBF7E302C005900D92A237B107D9F7BF
:1003400022E0A2E7B1E001C01D92AB3EB207E1F7A7
:100350000E9470170C94981B0C940000482F209159
:10036000E7029091AE0257E0291302C080E00895A1
:1003700030E0529FF001539FF00D1124E155FD4FE5
:100380008181681306C08081481303C08581811173
:10039000EECF2F5F3F4F2770E7CFFC01AC01465FE8
:1003A0005F4F8FEF91E32191822728E030E087FFB4
:1003B00009C0880F892721503109C9F7E417F507CB
:1003C00091F70895880FF7CFE8EDF0E080818E7FF8
:1003D00080831092E2001092DA001092E100A0EE09
:1003E000B0E08C9181608C9380818F77808319BC81
:1003F000A7EDB0E08C918E7F8C9380818F7E80837F
:1004000010927F0208952091E4003091E50095E676
:10041000A9012091EC00822F817020FF06C08091FD
:10042000E80080FF06C080E008952091E80022FDEA
:100430001AC08091A402882389F0853089F08091C8
:10044000EB0085FD0FC02091E4003091E5004217DC
:100450005307F9F29150E1F684E0089582E008959F
:1004600083E0089581E008958091A60287FF13C07C
:100470008091E80082FF06C08091E8008B7780932E
:10048000E80004C08091A4028111F2CF0895809108
:10049000A4028823D9F38091E80080FFF8CF8091EF
:1004A000E8008E77ECCF982F9093E900242F762FD9
:1004B00050E0891731F07091EC002091ED005091DF
:1004C000F00021FD07C09F5F973071F78093E9002E
:1004D00081E008953091EB003E7F3093EB00309146
:1004E000ED003D7F3093ED003091EB0031603093B3
:1004F000EB007093EC002093ED005093F0002091FE
:10050000EE0027FDE0CF80E00895B0E0A0E0EBE84A
:10051000F2E00C94FD1AC8EDD0E088818F7E8883CC
:10052000E7EDF0E080818160808384E082BF81E03C
:1005300080937F0288818E7F888302EE10E0F8012D
:1005400010821092DA0081EEC82ED12CF6011082B2
:1005500088818F77888388818068888388818F7D70
:10056000888319BC1092A4021092A5021092A302D3
:100570001092A20290EEE92EF12CF70180818B7F80
:10058000808388818160888342E060E080E00E940F
:100590005302F60180818E7F8083F8018081816023
:1005A0008083808188608083F70180818E7F808353
:1005B000888180618883CDB7DEB7E8E00C94191B91
:1005C000FC018091AC029091AD0286179707A0F0D4
:1005D0006115710529F49091E8009E779093E800E9
:1005E00090E06115710551F4911108C08091E80007
:1005F00082FF34C080E00895BC01F2CF8091A40254
:100600008823C1F18530C1F18091E80083FD30C0BD
:100610008091E80082FDEACF8091E80080FFE1CF81
:100620008091F3002091F200382F6115710519F0C7
:100630002830310558F091E02830310509F090E07C
:100640002091E8002E772093E800CBCF8191809312
:10065000F100615071092F5F3F4FE7CF8091A402F5
:10066000882341F0853041F08091E80083FFBECFC0
:1006700081E0089582E0089583E0089508958091CF
:100680008102089588E198E00FB6F894A8958093C8
:1006900060000FBE90936000A895F894DAE0CEEF6A
:1006A00028E3299320E0299314BEFFCF08959C01ED
:1006B0004FB7F8948091790290917A02A0917B02D1
:1006C000B0917C024FBF821B930B08952FB7F89413
:1006D0006091790270917A0280917B0290917C0204
:1006E0002FBF08952FB7F8948091790290917A02E4
:1006F000A0917B02B0917C022FBF0895209121012F
:100700002223C9F020917D0227FF15C0E62FE69530
:10071000E695E695EE31D8F4E80FF92FF11D6770F4
:1007200021E030E001C0220F6A95EAF7209582812E
:10073000282322830895FC013296089621916213A2
:1007400003C0DF0111971C92E817F907B9F7089564
:10075000209121012223C1F020917D0227FF14C0A6
:10076000E62FE695E695E695EE31F8F4E80FF92FD9
:10077000F11D677021E030E001C0220F6A95EAF7B1
:100780008281822B82830895FC0132962FEF30E024
:100790004191641751F02F3F19F4411101C0232FEB
:1007A0003F5F3630A9F72F3F09F40895820F911D5E
:1007B00027FD9A95FC0162830895A3E0B0E0E3EE83
:1007C000F3E00C94031B20917602309177022817F6
:1007D0003907A1F09093770280937602E09174023A
:1007E000F0917502309751F024E029839B838A832E
:1007F0000680F781E02DCE01019609952396E2E06F
:100800000C941F1BA3E0B0E0E8E0F4E00C94031BA1
:10081000209172023091730228173907A1F090934A
:10082000730280937202E0917402F0917502309726
:1008300051F023E029839B838A830680F781E02D92
:10084000CE01019609952396E2E00C941F1B80E0EF
:100850000895F894E82FE295EF70F0E031A1282F89
:100860002F7081E090E001C0880F2A95EAF7982F59
:100870009095932391A392A1892B82A378940895B4
:1008800090917D0292FF06C0282F28712830F9F43C
:10089000877F846093FF06C0282F28712831F1F4E8
:1008A000877E846120917E0220FF06C0382F387138
:1008B0003830D9F4877F816021FF06C0282F287146
:1008C0002831D1F4877E816194FD877E0895282F99
:1008D00024712430F9F68B7F8860DCCF282F2471B7
:1008E000243101F78B7E8861DDCF382F31713130B3
:1008F00019F78E7F8860E0CF282F2171213121F7F1
:100900008E7E8861E1CF82389105B9F1B0F48133F0
:10091000910509F47DC048F48932910509F46DC050
:100920008A32910509F47BC008958533910509F455
:100930005FC08933910509F10895833E9105D9F18E
:1009400038F4803E910529F1823E910579F10895B0
:10095000863E9105D9F1873E910509F43EC0843E5B
:10096000910541F520917E0221FF24C080917D02F6
:1009700084FD19C087EE90E0089520917D022370D8
:1009800009F05AC020917E0223FF14C089E290E052
:10099000089520917D0220FD38C030917E0230FF05
:1009A00009C024FF43C090E080E0089520917D02BB
:1009B00022FDF7CF089520917D0222FD3AC03091AB
:1009C0007E0230FD39C024FFF5CFEDCF20917D02AE
:1009D00023FFF0CF24FDE7CFCDCF20917D0223FD73
:1009E0002EC030917E0231FFEECF84EE90E008956C
:1009F00020917D0225FFDECFC9CF20917D0225FD0C
:100A000021C020917E0223FFD5CF89E390E0D2CF91
:100A100020917D0226FFCECF8AE290E008952091BA
:100A20007D0226FFC7CF81E390E0089583EE90E03A
:100A3000089582EE90E0089580EE90E0089586EEAD
:100A400090E0089585E390E008957A3088F460316D
:100A500078F4811110C080E1789FF0011124E60F35
:100A6000F11DEE0FFF1FE455FF4F859194910895FE
:100A700080E090E0089581E0FCCF1F93CF93DF9357
:100A80000E948304EC01C11580E5D807F0F5C1157B
:100A900080E4D80708F09CC0C03ED10520F5CD3CCD
:100AA000D10508F082C0C83AD10578F4C53AD1051D
:100AB00008F073C0C130D10519F1209709F1C43095
:100AC000D105F0F4D0E0C0E01BC0C33CD105D0F7A5
:100AD000C85AD0E0CC0FDD1FCB5DDE4F0990D88126
:100AE000C02DD4640DC0C11580E2D80708F0D1C074
:100AF000C11581E0D80708F05AC0C83ED10510F7EB
:100B0000CE01DF91CF911F910895C03682E5D807BD
:100B100018F5C03482E5D80708F06BC0C03282E512
:100B2000D80708F05FC0C11582E5D80708F497C060
:100B30002C2F2695269580E2289F900111248C2F3A
:100B40008370C1E0D0E002C0CC0FDD1F8A95E2F7D0
:100B5000C22BD32BDD68D4CFC03A82E5D80760F42E
:100B6000C03882E5D80708F459C0CF71D0E0DC2F37
:100B7000CC27C46FD06AC4CFC03C82E5D80708F444
:100B800062C0C03E82E5D80708F09CCFDC2FCC279E
:100B9000CC27DF71C06FD06AB3CFC55AD0E0CE5D2D
:100BA000DE4FC881D0E0D064ABCFD065A9CF8D2F08
:100BB0000E944004182FCE0199270E948304C12F60
:100BC000D0E0DC2FCC27CC27DF71C82BD92B98CFD6
:100BD000CE0199270E948304CC27DF70C82BD92B24
:100BE000D06A8ECFCF71D0E0DC2FCC27C16FD06A16
:100BF00087CF2C2F26952695277080E2289F90017D
:100C000011248C2F8370C1E0D0E002C0CC0FDD1F17
:100C10008A95E2F7C22BD32BDC6872CF2C2F269556
:100C20002695277080E2289F900111248C2F8370D5
:100C3000C1E0D0E002C0CC0FDD1F8A95E2F7C22BE5
:100C4000D32BDA685DCF8C2F8F710E944004C82FA0
:100C5000D0E0DC2FCC27CC27DF71D06251CF8C2F96
:100C60008F710E94400455E0D695C7955A95E1F7DB
:100C7000CF70D0E0DC2FCC27282F30E084FF05C0D8
:100C800044E0220F331F4A95E1F7C22BD32BD069E2
:100C900037CF8D2F8F710E944004182FCE019927D6
:100CA0000E948304C12FD0E0DC2FCC27CC27DF713A
:100CB000C82BD92BD2CF80959091FC01982390938B
:100CC000FC0108958091E7029091AE02981301C053
:100CD00008958F5F8770FACFCF92DF92FF920F93C4
:100CE0001F93CF93DF936C01009147028091FD0128
:100CF000082BC7E0D0E010E0FC2EC8010C2E02C08B
:100D0000959587950A94E2F780FD0CC02197A0F78E
:100D1000F12C8F2DDF91CF911F910F91FF90DF90DC
:100D2000CF900895B6018C2F0E9425050E943D05A5
:100D3000019761F3EECFCF93DF93EC010E946C0635
:100D4000BE010E9425050E943D05DF91CF910895C7
:100D50009A3080F5803170F540E1949F9001112424
:100D6000820F932F911D682F677023E096958795CA
:100D70002A95E1F7FC01EE0FFF1FE80FF91FEA5675
:100D8000FE4F50E040E080E0219130E0062E02C0AE
:100D9000369527950A94E2F721703327042E01C077
:100DA000220F0A94EAF7822B4F5F5F4F43305105C1
:100DB00059F7089580E008959A3098F5803188F5C4
:100DC00040E1949F90011124820F932F911D282FB1
:100DD000277041E001C0440F2A95EAF723E0969579
:100DE00087952A95E1F7FC01EE0FFF1FE80FF91F29
:100DF000EA56FE4F90E080E070E05191DF011197DC
:100E00009B01082E02C0369527950A94E2F72170BF
:100E100021952527242325272C930196833091059E
:100E200061F7089580934702089521E030E001C002
:100E3000220F8A95EAF720958091470282230E942B
:100E4000120708959091D901809589238093D90143
:100E5000282F277069F4891759F090917E0292FF2C
:100E600007C08695869586950E9415071092D90130
:100E7000089521E030E001C0220F8A95EAF78091C1
:100E80004702822B0E94120708958093FD01089566
:100E9000FC0124812223C1F0808191810E949B0664
:100EA00092959F70963091F058F4925F9F709230B7
:100EB00058F4803F19F030F4883E30F481E0089512
:100EC0009A5FF4CF843FD1F380E00895883EB0F379
:100ED000813FD1F7F3CF80FF09C02E9A81FF08C070
:100EE0005A9A82FF07C05B9A81E008952E98F6CF48
:100EF0005A98F7CF5B98F8CFA6E0B0E0E2E8F7E0C9
:100F00000C94021B49835A8349815A819923A1F089
:100F1000222391F0CA010E946C06182F682F898144
:100F20009A810E94DC0669817A81812F0E942505C1
:100F30002696E3E00C941E1BCA010E94A806182FF7
:100F4000F2CF0F931F93CF93DF938B01EA01909120
:100F5000A402943061F58093E9008FEF9091E8004E
:100F6000815095FD06C095ED9A95F1F7000081112D
:100F7000F5CF8091E80085FF1AC00E94030281111D
:100F800011C08091E80085FD06C08091E8008E7751
:100F90008093E800F2CFF80181918F018093F100F6
:100FA000219779F78091E8008E778093E800DF91B0
:100FB000CF911F910F91089543E050E0BC0182E072
:100FC0000E94A1070895CF93DF93EC018091210146
:100FD000811111C048E050E0BE0181E00E94A107EC
:100FE00080E2FE01A2E8B2E001900D928A95E1F75D
:100FF000DF91CF91089580917D0287FF05C040E287
:1010000082E050E0BE01EACF48E081E0FACFB0E0F4
:10101000A0E0EDE0F8E00C94FB1A7C015B016A01B2
:1010200080912C0201E010E08A3010F40AE010E018
:10103000C1E0D0E0B501C701F6010995811104C0F6
:1010400021960C171D072CF4CDB7DEB7EAE00C94FF
:10105000171BCC9F9001CD9F300D300D112490E0D7
:1010600080E045E34A95F1F7000001968217930767
:10107000C1F7E0CF80910A02811110C08091D800A1
:1010800080618093D8008AE18A95F1F700C0809151
:10109000D90080FF0AC081E080930A0281E090912C
:1010A0000A02913009F080E0089582E080930A02FC
:1010B0000E94E4011092A402F1CF0E943A08882312
:1010C00059F0E0917402F0917502309729F0019087
:1010D000F081E02D0995089580E008950F931F9306
:1010E0000E943A08882329F00E9466031F910F91FD
:1010F00008950E94660300912D0210912E02209106
:101100002F0230913002600F711F821F931FEECFAC
:1011100090917E0292FB222720F9281779F080FB1C
:1011200092F990937E0260917D0270917E0284E03C
:1011300090E00E94821B82E00E9422070895A4E0B2
:10114000B0E0E5EAF8E00C94021B409128025091CF
:10115000290260912A0270912B022FB7F894809196
:10116000790290917A02A0917B02B0917C022FBF0C
:10117000841B950BA60BB70B11E084369105A105D6
:10118000B10570F10E946E086E5F7F4F8F4F9F4FC9
:1011900069837A838B839C838091110190911201E2
:1011A000875E9D4F4091100150E04530510510F091
:1011B00044E050E0BE016F5F7F4F0E943D1B82E024
:1011C00090E00E947D1A182F882351F00E94660338
:1011D000609328027093290280932A0290932B0235
:1011E000812F2496E3E00C941E1BEF92FF921F9335
:1011F000CF93DF93CDB7DEB72B970FB6F894DEBF52
:101200000FBECDBF7B0190E080E00E947D1A182FB9
:10121000882309F480C04091030150E04115510535
:1012200011F041E050E06091040170910501675EAA
:101230007D4FCE010B960E943D1B409115025091AF
:10124000160260911702709118022FB7F8948091DE
:10125000790290917A02A0917B02B0917C022FBF1B
:10126000841B950BA60BB70B84369105A105B10520
:1012700040F48AE192E00E94CD019B85891709F430
:101280004AC081E090E00E947D1A811116C010E0F2
:101290008AE0EBE0F2E0D70101900D928A95E1F748
:1012A000812F2B960FB6F894DEBF0FBECDBFDF9116
:1012B000CF911F91FF90EF90089540910B0150E066
:1012C0004B30510510F04AE050E060910C017091F4
:1012D0000D01675E7D4FCE0101960E943D1B8AE1A4
:1012E00092E00E94CD019B858913D1CF0E946603B5
:1012F0006093150270931602809317029093180260
:101300008AE0FE013196ABE0B2E001900D928A9541
:10131000E1F711E0BDCF8AE0EAE1F2E0DE011196EB
:1013200001900D928A95E1F71111EACFB1CFAEE1AC
:10133000B0E0EDE9F9E00C94F51A8E010F5F1F4F54
:1013400084E1D8011D928A95E9F76DE5E62E61E00A
:10135000F62E680172E6472E71E0572E66246394DC
:10136000712CF2E78F2EF1E09F2EF70181917F0122
:101370008F3F09F445C0F894E82FE295EF70F0E054
:1013800021A18F70A30102C0440F551F8A95E2F777
:10139000CA01922F982B91A392A18095892382A3B1
:1013A000789400C0E2E6F1E021E030E0B12CA12C1D
:1013B00041914F3F09F46DC0A42FA295AF70B0E0EA
:1013C00090968C9190E04F7002C0959587954A95C4
:1013D000E2F780FD5EC0C901A82AB92A220F331F97
:1013E0008E169F0629F7F701319780818F3F11F004
:1013F0000E94290450EA5A95F1F7D601AD92BC92A9
:10140000B2E0CB0ED11C4E145F0409F0AECF44E124
:1014100050E0B80181E392E00E94301B009741F058
:1014200024E1F801A1E3B2E001900D922A95E1F7E1
:1014300000914602892B81F181E0809302020E9493
:1014400072039093010280930002809100029091B8
:1014500001020E945703059718F110E0000F111FB9
:10146000085B1D4F4AE050E061E372E0C8010E9452
:10147000301BF12C892B51F08AE0E1E3F2E0D80136
:1014800001900D928A95E1F7FF24F39410920202E5
:1014900008C090E080E0A0CF809102028111D5CFFA
:1014A000F12C0E943A08E82EE0914602882309F4C4
:1014B00072C06E01F5E1CF0ED11C8AE0D6011D92FB
:1014C0008A95E9F70E2F10E0000F111F085B1D4FE2
:1014D00080912C028A3030F545EF58E0B601C80102
:1014E0000E940708882309F445C04FE958E0B60177
:1014F000C8010E9407088823E9F110922C0280910C
:10150000450290E0880F991F4AE050E0B601885BE1
:101510009D4F0E94301B21E020930902892BB1F4DA
:10152000E12C22C080910302909104020E94570393
:10153000843F914088F680910902882389F38AE0EC
:10154000F60111928A95E9F710920902A0914502DD
:10155000B0E0AA0FBB1FA85BBD4F8AE0FE017596E5
:1015600001900D928A95E1F78E2D8F296E96E0E11C
:101570000C94111B80912C028F3F31F08F5F809370
:101580002C028A3008F4BBCF0E94720390930402AD
:1015900080930302D0CFF0E0EE0FFF1FE85BFD4F1A
:1015A0008AE0AAE1B2E001900D928A95E1F78AE122
:1015B00092E00E94CD0180931902809024029090C5
:1015C0002502A0902602B0902702809105029091FA
:1015D0000602A0910702B091080288169906AA0691
:1015E000BB0609F49DCF8092050290920602A0925C
:1015F0000702B09208020E943A08E82E811190CFAB
:101600000E946603861A970AA80AB90A80922D02D8
:1016100090922E02A0922F02B0923002A5CF80911C
:10162000FC019091FB01892B809374019091FA0148
:101630009923A1F0892B8093740180912101882343
:10164000E1F180917D0287FF38C08EE1E6E7F1E0AD
:1016500090E08150A0F591111092FA0140E250E023
:101660006AED71E084E791E00E94301B892B21F143
:1016700080E2E4E7F1E0AAEDB1E001900D928A95F5
:10168000E1F7E0917402F09175023097A9F0809132
:101690002101882359F080917D0287FF07C0809146
:1016A00074018093750186E0809374010280F38158
:1016B000E02D84E791E00995089586E0C7CF219158
:1016C000222339F29F5FC5CF1092FC018091210146
:1016D000E6E7F1E08823B1F080917D0287FF12C038
:1016E0008EE1DF011D928A95E9F790E080E00E948B
:1016F000020490E080E00E94DD031092FB010E9452
:101700000F0B089586E0EDCFAAE2B0E0EAE8FBE037
:101710000C94021B86EA92E02091F100FC012193D7
:10172000CF01F2E08E3A9F07B9F78091A70283308C
:1017300009F470C0B8F4813009F447C0823009F46C
:10174000B1C08091E80083FF7EC28091A602909193
:10175000A7029A3008F077C2E92FF0E0E656F44E7F
:101760000C942A1B8A3009F48CC08B3009F46FC0AA
:10177000893039F78091A602813219F78091AA0247
:101780009091AB020297E8F68091E800877F809302
:10179000E8008091E80082FF38C09091F3008091CA
:1017A000F200029731F48091F100813011F086301F
:1017B00021F48091F100809381028091E8008B7781
:1017C0008093E8000E943402BCCF8091A602813A47
:1017D00009F0B7CF8091E800877F8093E80080917F
:1017E000AA029091AB02892B61F460E282E892E058
:1017F00070E00E94E0028091E8008B778093E8001F
:10180000A0CF60E090E080E0F3CF8091A40281114E
:10181000C0CF97CF8091A602813A09F092CF8091F4
:10182000AA029091AB02892B09F08BCF8091E8003E
:10183000877F8093E8008091E80080FFFCCF809153
:1018400021018093F1008091E8008E77B9CF8091DB
:10185000A602813209F075CF8091AA029091AB0265
:10186000892B09F06ECF8091E800877F8093E80094
:101870000E9434028091A802809321010E94640B8F
:1018800060CF8091A602813209F05BCF8091E800A1
:10189000877F8093E8000E9434028091A9028093A0
:1018A00080024FCF8091A602813A09F04ACF809101
:1018B000E800877F8093E8008091E80080FFFCCFFC
:1018C00080918002BECF803899F0823809F0BBC188
:1018D0008091AA028F70873008F0B5C18093E9002B
:1018E0008091EB0085FB882780F91092E90006C003
:1018F0008091A2029091A302911182609091E800E0
:10190000977F9093E8008093F1001092F10080910E
:10191000E8008E7794C1882309F482C1823009F0EF
:1019200092C18091A802811185C18091AA028F7015
:101930002FEF280F263008F086C18093E900209110
:10194000EB0020FF77C1933031F48091EB0080628F
:101950008093EB006FC19091EB0090619093EB004E
:1019600021E030E001C0220F8A95EAF72093EA00D7
:101970001092EA008091EB008860EACF811163C188
:101980001091A8021F778091E3008078812B8093CB
:10199000E3008091E800877F8093E8000E94340292
:1019A0008091E80080FFFCCF8091E3008068809305
:1019B000E30082E0111183E08093A40244C18058C7
:1019C000823008F040C18091A8029091A9028C3D1C
:1019D00023E09207A1F583E08A838AE289834FB7E7
:1019E000F894DE01139620E03EE051E2E32FF0E0B0
:1019F00050935700E49120FF03C0E295EF703F5FE2
:101A0000EF708E2F90E0EA30C0F0C7968D939D93D3
:101A10002F5F243159F74FBF8091E800877F809373
:101A2000E8006AE270E0CE0101960E94E002809137
:101A3000E8008B778093E80006C1C096E7CF40911D
:101A4000AA025091AB02292F33272330310509F424
:101A500044C078F52130310509F46FC08BE390E084
:101A6000E9E9F2E02230310509F0EDC02091E8000B
:101A7000277F2093E8002091AC023091AD028217BD
:101A8000930708F49C0140E02115310509F064C07A
:101A9000411162C08091E80082FDC9CF8091A4020B
:101AA000882329F2853019F28091E80083FFF2CF74
:101AB000BECF21323105A9F12232310509F0C3C070
:101AC0004115510509F443C04130510509F0BBC02F
:101AD0008DE690E0ECEEF1E0C9CF992781309105D9
:101AE000C1F0009759F0029709F0ADC0E6EEF2E0C0
:101AF000E4918E2F90E0E6EEF2E007C0EAE1F3E039
:101B0000E4918E2F90E0EAE1F3E0009709F49BC0A6
:101B1000ADCFEEE0F3E0E4918E2F90E0EEE0F3E065
:101B2000F4CF4115510571F04130510509F08BC0DA
:101B300089E090E0E4ECF2E099CF82E190E0E4ED1E
:101B4000F2E094CF89E090E0EBEAF2E08FCF80E41E
:101B500090E0E9E5F2E08ACF8091A402882309F4BD
:101B600066CF853009F463CF8091E80083FD5FCFB5
:101B70008091E80082FD8ECF8091E80080FF84CFC5
:101B80009091F3008091F2002115310519F0883011
:101B9000910550F041E0089709F040E08091E8009D
:101BA0008E778093E80070CF44914093F100319696
:101BB000215031090196E8CF803809F044C0809166
:101BC000E800877F8093E8008091A5028093F10070
:101BD0009ECE811138C01091A8021230A0F58091DC
:101BE000E800877F8093E8001093A5020E943402EA
:101BF000112311F084E005C08091E30087FDFACF46
:101C000081E08093A40242E061EC81E00E945302F3
:101C100042E261EC82E00E9453028091A40213C070
:101C20008091A802813079F481E0933009F080E05E
:101C30008093A3021092E9008091E800877F80934F
:101C4000E8000E9434028091E80083FF0AC080917E
:101C5000E800877F8093E8008091EB0080628093AA
:101C6000EB00AA96E3E00C941E1B0E94640B2FEF7E
:101C700084E39CE0215080409040E1F700C00000E8
:101C800088E198E00FB6F894A895809360000FBEA5
:101C900090936000FFCF882321F00E945B060E9492
:101CA0000F0B0895882339F09091FC01982B9093A5
:101CB000FC010E940F0B0895882351F19CEF980FAF
:101CC000913A40F4682F84E791E00E947E030E94DD
:101CD0000F0B089590E2980F983050F4877091E0C0
:101CE00001C0990F8A95EAF7892F0E945B06EFCF12
:101CF0009BE5980F933028F490E080E00E94020466
:101D00000895885A8B3120F490E080E00E94DD0332
:101D10000895CF93C82F8823D9F18CEF8C0F813A87
:101D2000C8F580912101882311F180917D0287FF00
:101D30001EC0EC2FE695E695E695F0E0EC58FE4FD8
:101D4000828190E04C2F477021E030E002C0220FEA
:101D5000331F4A95E2F782239323892B91F06C2F4E
:101D600084E791E00E947E030E940F0B0AC0E6E721
:101D7000F1E08CE791E02191C21789F38E179F075C
:101D8000D1F76C2F84E791E00E94A8030E940F0B0B
:101D9000CF91089580E28C0F883068F4C77021E0FD
:101DA00030E001C0220FCA95EAF78091FC01822B36
:101DB0008093FC01EBCFEBE5EC0FE33040F4F0E077
:101DC000EE5DFE4F808190E00E940204E1CFC85A90
:101DD000CB31F0F6EC2FF0E0EE0FFF1FEB5DFE4F86
:101DE000808191810E94DD03D3CF0F931F93CF9306
:101DF000DF93C62FD42F022FFC0185818823A9F001
:101E00006093EA020E9472039093E9028093E802D1
:101E1000C77081E001C0880FCA95EAF70E94520E90
:101E2000DF91CF911F910F9108958091EA0268137D
:101E300035C08091E8029091E9020E945703883CE6
:101E4000910560F510E21D0FCD17B9F080E28C0FFF
:101E5000883040F4C77081E001C0880FCA95EAF766
:101E60000E944B0E183048F481E09D2F977001C0FE
:101E7000880F9A95EAF70E94520E802F0E94890ED1
:101E8000802F0E945C0E183058F6D77081E001C098
:101E9000880FDA95EAF70E944B0EC2CFC77081E037
:101EA00001C0880FCA95EAF7F6CFA8E0B0E0EBE5ED
:101EB000FFE00C94031B66EE7EEF90E080E00E9452
:101EC000821B60E082E090E00E94641B60E083E09F
:101ED00090E00E94641B1092FD0160E074E184E0D8
:101EE00090E00E94821B60E086E090E00E94641B0C
:101EF0006FEF87E090E00E94641B40E050E0BA0181
:101F000088E090E00E94761B60E084E290E00E940E
:101F1000641B60E087E190E00E94641B60E08CE05D
:101F200090E00E94641B60E08DE090E00E94641BE2
:101F300019821A821B821C821D821E821F821886B1
:101F400048E050E068E170E0CE0101960E94541B29
:101F500040E050E0BA0180E290E00E94761B40E051
:101F600050E0BA018FE090E00E94761B40E050E024
:101F7000BA0183E190E00E94761B2896E2E00C947F
:101F80001F1BB0E0A0E0E7ECFFE00C94FB1A8C0113
:101F9000FC018481882341F121E0408151816281EB
:101FA000738195810E947C07EC01FC01E851FC479C
:101FB000E730F105A8F5EC55F44E0C942A1B26E207
:101FC00041EE61EEC8010E94F50E8091D901877043
:101FD00059F0F8018581882339F080917E0282FFD3
:101FE00003C082E00E942207CDB7DEB7EAE00C947E
:101FF000171B27E245EE65EEE5CF26E241EE60EEE7
:10200000E1CF27E245EE64EEDDCF26E241EE62EE5F
:10201000D9CF27E245EE66EED5CF28E241E0EBCFFF
:10202000F8018581882309F453C31092EA02CE0196
:102030009057839708F036C384E090E00E944E1BCF
:1020400090937E0280937D02FE01E150F047E232E0
:10205000F10520F4E555F44E0C942A1B80917D0285
:10206000816080937D0295C080917E02886080931C
:102070007E028FC080917D028260F3CF80917D02CD
:102080008460EFCF80917D028860EBCF80917E02EB
:102090008160EDCF80917E028260E9CF80917D02E8
:1020A0008061DFCF80917D028062DBCF80917D02F5
:1020B0008064D7CF0E94640B80917D028068D1CF6D
:1020C00080917D028C60CDCF80917E028360CFCFE6
:1020D00080917D028E7FC5CF80917E02877FC7CFA2
:1020E00080917D028D7FBDCF80917D028B7FB9CFA6
:1020F00080917D02877FB5CF80917E028E7FB7CFA2
:1021000080917E028D7FB3CF80917D028F7EA9CF9B
:1021100080917D028F7DA5CF80917D028F7BA1CFA5
:102120000E94640B80917D028F779BCF80917D020E
:10213000837F97CF80917E028C7F99CF80917D02A3
:1021400082FB992790F921E0922790FB82F990FB7E
:1021500083F987CF80917E02982F909591708E7F22
:10216000892B90FB81F983CF90917D02892F8F7B02
:1021700096FF806476CF0E94640B90917D02892F38
:1021800097FB87F980586DCF61E08EE090E00E9468
:10219000641B60917D0270917E0284E090E00E9459
:1021A000821B0E94640B11CF60E0EFCF90917D0203
:1021B000892F8F7E94FF806154CF90917D02892F6B
:1021C0008E7F90FF81604DCF90917E02892F877F17
:1021D00093FF88604CCF0E94640BFFEF24E33CE048
:1021E000F15020403040E1F700C000000E9442035F
:1021F000ECCE6FEF7FEF90E080E00E94821B0E94A8
:10220000350E80917E0282FB882780F991E0892734
:102210000E948808F8018581C081D181882309F452
:102220004AC0CE010E946C06F82E682FCE010E9493
:10223000DC06BE018F2D0E9425050E943D05D82F8A
:10224000C92FA82EF801C580B680B2943FE0B32212
:102250008091D9018770F1F0EC2CCC20E1F0892F2E
:10226000807F803451F080E28D0F883098F0B1107B
:1022700004C0892F807E803269F080917E0282FFC7
:1022800009C082E00E9422078091D9018770EE2464
:10229000E3948111E12CDC2ED2942FE0D222FBE0DA
:1022A000FD1508F46DC0ED2DF0E0E353F44E0C94F1
:1022B0002A1B80E0ADCFCE010E94A806F82EB9CF30
:1022C0002C2F2F70F22EC07F19F0F29490EFF9228C
:1022D000CC20B9F0FF2069F080E28D0F883010F03B
:1022E000A11009C08091FC01F82AF092FC010E9423
:1022F0000F0B8D2F43C08091FB01F82AF092FB0158
:10230000F6CF8D2F0E945C0EFF20D1F1D05ED83029
:1023100010F0A11004C08F2D0E945B0606C0F0943F
:102320008091FB01F822F092FB010E940F0B28C064
:102330003C2F3F70F32EC07FC03219F0F29480EF33
:10234000F822AA2059F081E0A81609F47BC0CC201D
:1023500009F487C0BB2009F449C0CBCF80917E022D
:1023600082FD40C0CC20C1F1FF2039F08091FC01FA
:10237000F82AF092FC010E940F0B80E00E94890E67
:102380002D2D2850330B2430310520F40E945D0898
:102390000E946B07EE20A9F08091D90180FD11C049
:1023A000F80115828695869586950E943907C801A1
:1023B0000E94C10F8091D9018695869586950E94CD
:1023C000150720E0F8014081518162817381848189
:1023D00095810E947C0708CE80E00E945C0EFF2061
:1023E00079F299CFCC20A1F0B11004C08F2D0E94BA
:1023F000520EC6CF91E0B912C3CF8091FA019F2D42
:102400009823F91609F4BCCFF82AF092FA01B8CF54
:10241000B110B6CF8F2D0E944B0E9091FA018F2DE7
:10242000892329F08F2D809589238093FA0180914B
:1024300095019F2D982309F4A3CFF094F822F092F0
:1024400095019ECFCC2029F0E5E0EB1508F498CF5C
:10245000CDCFF4E0FB1508F493CF8F2D0E944B0EE7
:102460008FCFBB20D1F329E3A21209C03FEF87EE43
:1024700093E0315080409040E1F700C000008D2F84
:102480000E945C0E7DCF8C2F86958695837069F0B7
:10249000813009F075CF8D2F9C2F9370C11002C031
:1024A00080E090E00E94DD036BCF8D2F9C2F937016
:1024B000C11002C080E090E00E94020461CF8C2F26
:1024C000837089F5C1105CCF4D2F429546954770BA
:1024D000440F440F8D2F8F70042E01C0880F0A9473
:1024E000EAF72D2F2071D4FF07C02FE030E001C0A4
:1024F000220F4A95EAF72095C695C695C370C2305B
:1025000069F050F43091FD01C13029F0822B832312
:102510000E94450735CF832B822BFACF282B809141
:10252000FD018227F5CF8695CC2011F08C2F81708C
:10253000882309F425CF4D2F429546954770440FC7
:10254000440F8D2F8F70042E01C0880F0A94EAF774
:102550002D2F2071D4FF07C02FE030E001C0220FE3
:102560004A95EAF72095C695C695C370C23069F0C2
:1025700050F430914702C13029F0822B83230E940E
:102580001207FECE832B822BFACF282B8091470295
:102590008227F5CFCF70CC2029F08C2F0E943907ED
:1025A0008D2F25CF8D2F0E944B0E8C2F0E9415074B
:1025B000E7CE8D2FE2EFAE16A9F1EA1570F0F0EF3D
:1025C000AF16D1F021EFA21691F0CC2009F45AC039
:1025D000B1108FCE8C2F8F7129C033EFA31649F124
:1025E00094EFA912F2CF80917E0282FD2DC08C2F34
:1025F0008F71CC20D9F21AC0CC2079F0E4E0EB1531
:1026000008F4BECECF7181E090E001C0880FCA957A
:10261000EAF7909147028927B2CFF5E0FB1508F45D
:10262000AFCEF0CF8C2F8F71C110C0CF0E94390771
:10263000A7CE80E0CC2009F4A2CFCF7181E001C009
:10264000880FCA95EAF79BCFCC2089F0CF718C2FE9
:102650000E94390780917E0282FF07C028E0C29F56
:10266000C001112483608093D9018C2FDFCF81E0DA
:102670000E94220731E03B1508F082CE82E00E94E2
:1026800022077ECEBB2059F0893309F0F8CE8FEFB8
:1026900097EEE3E081509040E040E1F7EECE8C2FE2
:1026A0008F7184CFC631FCE7DF0701F58091FC0113
:1026B0008A7A91E009F490E09093940169E28111A3
:1026C00065E384E791E00E94A8030E940F0B7DCC94
:1026D000C631DC4709F09ECD8091940169E28111F9
:1026E00065E384E791E00E947E03EFCFC3303CE7CF
:1026F000D30709F47ECD50F4C1159CE7D90709F43E
:102700006ACDC130DC4709F47ACD84CDCB35FCE706
:10271000DF0709F4CECDCC352CE7D20709F471CD13
:10272000CA35DC4709F076CD81E072CDCF93DF93D7
:102730008091D801807F09F04DC08091D701882316
:1027400009F448C0E091E7025091AE02C091D30174
:10275000D091D2016091D4017091D50147E05E170C
:10276000C9F18E2F90E0E49FF0011124E155FD4F57
:102770002481222391F1489FF001499FF00D1124FB
:10278000DF01A155BD4F11962C9111972C1325C037
:102790002C912D1322C015962C91159721111DC037
:1027A00012962D913C91261B370B283C3105A8F43D
:1027B0008091D8018F7080618093D801EB54FD4FD8
:1027C00080818F708061808382ED91E00E94C10FD3
:1027D0000E946206DF91CF910895FC013196E77067
:1027E000BECFA4E1B0E0E7EFF3E10C94F91A8C015D
:1027F00086E0F801DE011F9601900D928A95E1F7BF
:10280000F8018481E58092EDA92E91E0B92E909196
:10281000D601911128C0882319F1EE20F1F0C801EA
:102820000E944807F82E8823C1F087E0F801D501FF
:1028300001900D928A95E1F78091D601813031F4B3
:102840008091D2019091D3010E949B060E94961321
:102850008F2D6496ECE00C94151BC8010E94C10FEB
:10286000FF24F394F5CFD080C18082809380F090D4
:10287000D7012091D4013091D501A401421B530B03
:10288000FF2009F4D9C0483C510508F092C08823C4
:10289000F9F29091D3018091D801282F207F09F07F
:1028A00056C0C91214C09091D201D91210C0E110C3
:1028B00048C08F7080618093D80182ED91E00E94C2
:1028C000C10F8091D801F8018683F12CC1CFE110AE
:1028D00038C06C2D8D2D0E94AE016C2D8D2D0E9467
:1028E000AE01E82E8111F1CFDF86C88A8F859889E5
:1028F0000E949B06292F22952F70243058F49F7038
:10290000223088F0992399F0F8019681907F79F42C
:10291000FE2C9ECF2A5F2F70223068F0C8010E94E3
:10292000C10FEF2CF5CF992311F0882389F3805E36
:10293000883070F3F3CF803F58F3815F833070F7B6
:10294000E7CF8091D80181608093D801BECFC912B2
:1029500007C09091D201D91203C0EE2009F48DC0B6
:10296000C8010E944807882309F477CFEE2009F4B4
:1029700074CF8091D801803288F02091D2013091BB
:10298000D301398728879B868A869091D6019C87B8
:102990001D868E87CE0108960E94C10F87E0F80140
:1029A000A2EDB1E001900D928A95E1F70E94961395
:1029B00057CF9091D801292F207F51F482ED91E0DB
:1029C0000E94C10F87E0F50111928A95E9F77DCF4A
:1029D000882309F43DCF8091D3018C1110C08091E0
:1029E000D201D8120CC0E1100AC09683C8010E941F
:1029F000C10F87E0F50111928A95E9F729CFC80147
:102A00000E944807882309F428CFEE2009F425CF37
:102A10008091D801803210F22091D2013091D301FF
:102A20003A8329839C828B829091D6019D831E825A
:102A30008F83CE010196B0CF483C5105D0F6882354
:102A400009F40ECFFE2CEE2009F407CF8091D301BC
:102A50008C1120C08091D201D8121CC08091D80165
:102A600080FD0FC0982F907F61F08683903F31F0FA
:102A7000982F907F905F8F70892B8683C8010E946A
:102A8000C10F87E0F801A2EDB1E001900D928A95A7
:102A9000E1F7DECEC8010E94480781117FCF809107
:102AA000D80181608093D801C8010E94C10FD0CEA7
:102AB000ABE1B0E0EEE5F5E10C94011B4E8B5F8BD2
:102AC000688F798F8A8F9B8F192F91111092FB013C
:102AD0001D8A86E0FE017696DE011F9601900D921A
:102AE0008A95E1F70A8D002341F021E04F8558894E
:102AF00069897A89C8010E947C070B8B1C8B87E04F
:102B0000FE013F96DE01189601900D928A95E1F73D
:102B1000CE0108960E94F11381110CC087E0FE01DE
:102B20003896DE01119601900D928A95E1F78C8519
:102B300081110BC017E08091E7029091AE028913DA
:102B400031C06B96E4E00C941D1B2091AE0230E086
:102B5000C9010196877099274091E7024817190625
:102B600099F097E0929FD001939FB00D1124A15549
:102B7000BD4FFE01319601900D929A95E1F7809339
:102B8000AE020E946206D6CF0E94640B1092AE0283
:102B90001092E70287E0E2EDF1E0DF011D928A95F5
:102BA000E9F7C8CF819FC001112481559D4F0E9434
:102BB000F113882331F28091E70290E0019687704B
:102BC00099278093E702B7CFA6E0B0E0EAEEF5E1FF
:102BD0000C94011B0E9472038C018091FE01909164
:102BE000FF018017910781F019821A820E947203F7
:102BF000682F49815A81792F80E090E00E94581512
:102C00001093FF010093FE012696E4E00C941D1B37
:102C10001F920F920FB60F9211242F933F934F9351
:102C20005F936F937F938F939F93AF93BF93CF9354
:102C3000DF93EF93FF93D091E900DF708091EC0078
:102C4000C82FC17080FDC0E81092E9008091F000AB
:102C5000877F8093F00078940E94840B1092E900A3
:102C60008091F00088608093F000CD2BCF70C093EE
:102C7000E900FF91EF91DF91CF91BF91AF919F91CB
:102C80008F917F916F915F914F913F912F910F9015
:102C90000FBE0F901F9018951F920F920FB60F92B4
:102CA00011242F933F934F935F936F937F938F9351
:102CB0009F93AF93BF93EF93FF938091E10082FFC7
:102CC00009C08091E20082FF05C08091E1008B7F06
:102CD0008093E1008091DA0080FF24C08091D800C9
:102CE00080FF20C08091DA008E7F8093DA0080918F
:102CF000D90080FF9DC080E189BD82E189BD09B412
:102D000000FEFDCF81E08093A40280917F028111BB
:102D100009C00E94E4010E9485028091E200846063
:102D20008093E2008091E10080FF17C08091E20073
:102D300080FF13C08091E2008E7F8093E20080913B
:102D4000E20080618093E2008091D80080628093ED
:102D5000D80019BC85E08093A4028091E10084FF33
:102D60002BC08091E20084FF27C080E189BD82E111
:102D700089BD89B5982F917080FFFBCF8091D800D5
:102D80008F7D8093D8008091E1008F7E8093E10059
:102D90008091E2008F7E8093E2008091E20081606A
:102DA0008093E2008091A502882309F447C084E063
:102DB0008093A4028091A4028091E10083FF27C048
:102DC0008091E20083FF23C08091E100877F8093A0
:102DD000E10082E08093A4021092A5028091E100BC
:102DE0008E7F8093E1008091E2008E7F8093E200ED
:102DF0008091E20080618093E20042E060E080E048
:102E00000E9453028091F00088608093F000FF914F
:102E1000EF91BF91AF919F918F917F916F915F9152
:102E20004F913F912F910F900FBE0F901F901895CB
:102E300019BC1092A40210927F0274CF8091E3001B
:102E400087FD93E09093A402B5CF78941F921FB6AC
:102E50001F9211248F939F93AF93BF938091790218
:102E600090917A02A0917B02B0917C020196A11D03
:102E7000B11D8093790290937A02A0937B02B09364
:102E80007C02BF91AF919F918F911F901FBE1F90A9
:102E900018951F921FB61F9211248F939F93AF9383
:102EA000BF9380917802811113C080917902909133
:102EB0007A02A0917B02B0917C024196A11DB11DC6
:102EC0008093790290937A02A0937B02B0937C0264
:102ED000BF91AF919F918F911F901FBE1F9018952A
:102EE00000D000D000D0CDB7DEB785B7806885BFF1
:102EF00085B7806885BF84B7877F84BF0FB6F89495
:102F0000A8958091600088618093600010926000B5
:102F10000FBE80E890E00FB6F89480936100909324
:102F200061000FBE87E294E0909373018093720179
:102F30000E94E4010E9485028091E20084608093F7
:102F4000E20078948091A4028823A1F01091E90016
:102F50001F709091EC00892F817090FD80E8182BF4
:102F60001092E9008091E80083FD0E94840B1F709D
:102F70001093E90082E084BD93E095BD9AEF97BD80
:102F800080936E0010922D0210922E0210922F024A
:102F90001092300290E080E00E944E1B863E9E4FD1
:102FA00011F00E94550F8EE090E00E94461B91E0C8
:102FB000811101C090E0909318010E943A0881119C
:102FC0000E949119809118018091180195E081115A
:102FD00090E09093460285E0891B809345020DE5C1
:102FE00011E0D8018D918D018F3F11F00E942904CD
:102FF000B1E002361B07A9F702E611E052E7E52E21
:1030000051E0F52EF80181918F018F3F11F00E9460
:103010002904E016F106B1F784E1E8E4F2E0DF010B
:10302000282F1D922A95E9F7E1E3F2E0DF011D92D6
:103030008A95E9F790E080E00E944E1B863E9E4F05
:1030400011F00E94550F82E090E00E94461B809391
:103050005C0284E090E00E944E1B90937E0280937D
:103060007D020E949709EFE3FCE93197F1F700C078
:1030700000000E9497098091480280FF08C06FEF0E
:103080007FEF90E080E00E94821B0E94420383E079
:1030900090E00E94461B0E944507269A2E98529A5D
:1030A0005A98539A5B980E943A08811102C00E9474
:1030B000941989E191E0909375028093740248E13C
:1030C000642E712C332433948091A40212E1853054
:1030D00009F494C00E9497092DE5A22E22E0B22E99
:1030E00038E4832E32E0932ED401F5012191319101
:1030F0008D919D9142E0E137F40709F48BC02817C8
:103100003907A1F30E943A08282E512CD4010D91C1
:103110001D914D01F501C190D1905F01C016D106FE
:1031200069F1C026D126412CEE24E394F12CC7018D
:103130008C219D21892BC1F02220B1F049825A8235
:103140000E9472039C838B833D8291E09701202330
:103150003123232B09F490E09E8349815A816B81AE
:103160007C818D810E9458154394EE0CFF1CF0E188
:103170004F12DDCFF50132971183008353942AE07B
:103180005212C4CF0E946E084BC08091A4028430BA
:1031900029F180E00E946B0710927802F0E40FB6EC
:1031A000F894A895609260000FBEF093600083B71A
:1031B000817F846083BF83B7816083BF7894889563
:1031C00083B78E7F83BF0FB6F894A8958091600077
:1031D000886180936000109260000FBE8091A3020E
:1031E000882361F00E949709E8E4F2E081919191CF
:1031F000892B41F522E0EC35F207C1F78091A4025A
:10320000853009F4C2CF0E94640B0E945D080E94C1
:103210006B0760CF2817390709F074CF0E94E415B7
:103220000E943A080E945D08182F809171021817B9
:1032300009F44ACF109371020E946603812F0E9405
:103240006B0742CF40E149BD19BD09B400FEFDCF77
:103250008091D8008F7D8093D8008091E0008260BB
:103260008093E0008091E00081FDFCCF0E94640B20
:10327000C5CF8EE1489B02C08150E1F7489BFECF4D
:103280000895589880E28A95F1F7589A0895FC01BC
:103290003BE03A95F1F798E020E080E031E040E152
:1032A0004A95F1F7880F489B02C08160232742E0CE
:1032B0004A95F1F7000040E14A95F1F7915079F70E
:1032C00090E19A95F1F799B132E03A95F1F7000063
:1032D00040E14A95F1F7917092272081920F9083F7
:1032E0000895A1E0B0E0E7E7F9E10C94FF1A198234
:1032F0008C017C01E60EF11C0E151F0541F481E0E6
:103300009981911180E02196E6E00C941B1B0E94AC
:103310003919CE0101960E944719F80181938F0156
:10332000EBCF509A589A08955098589AE89AE9E63F
:10333000F0E080818C7F808308956150770B91E06D
:1033400001C0990F6A95EAF720E031E0911108C0B9
:10335000222391F0589A80E28A95F1F758980895BF
:10336000492F482339F0589A232740E24A95F1F72C
:103370009695ECCF5898F9CF5898EDCFFF920F93D0
:103380001F93CF93DF93EC018C01060F111DC01723
:10339000D10729F4CDB7DEB7E5E00C941C1BF990FA
:1033A0000E94411968E08F2D0E949D19F0CF1F9255
:1033B0000F920FB60F9211240F931F932F933F93E9
:1033C0004F935F936F937F938F939F93AF93BF932D
:1033D000EF93FF93CF93DF930F92CDB7DEB71982B0
:1033E0000E943919CE0101960E944719082F0695AF
:1033F00006950695282F22952570902F9570290FF8
:10340000922F937026952695920F98279770898111
:10341000982B09F05CC0043008F059C080E18A950F
:10342000F1F7589A509A82E08A95F1F700C05898BF
:1034300088E0089F80011124D801A050BF4F169644
:10344000ED91FC9117973097A9F060915B01709115
:103450005C0114962D913C911597260F371F1196FC
:103460008D919C911297680F791F13964C91139729
:103470008C910995F801E050FF4F6381662351F06C
:1034800020915B0130915C0184819581820F931FB3
:103490000E94BE190E94411980E18A95F1F758985F
:1034A0005098589A80E18A95F1F7F801E050FF4F63
:1034B0006081662351F020915B0130915C01818134
:1034C0009281820F931F0E9471190E9439190F90E7
:1034D000DF91CF91FF91EF91BF91AF919F918F912C
:1034E0007F916F915F914F913F912F911F910F911C
:1034F0000F900FBE0F901F9018950F931F93CF93AF
:10350000DF93EC0104970CF04CC0F894509A589853
:1035100085E08A95F1F700009C2F969595708C2F89
:103520008570980F892F83709695969523E0CC0F20
:10353000DD1F2A95E1F7980F8E01092B0E94411992
:1035400000C068E0802F0E949D1980E18A95F1F704
:103550005098589A489B1EC087E090E048991CC03C
:10356000FE01E050FF4F63816623F9F020915B017B
:1035700030915C0184819581820F931F0E947119A3
:10358000811113C0509A589A7894DF91CF911F916E
:103590000F91089500C0DECF019729F4509A589AF0
:1035A000789480E0F2CF00C0D9CF0E94391980E230
:1035B0008A95F1F75898509A80E18A95F1F7C050B2
:1035C000DF4F6881662351F020915B0130915C01EF
:1035D00089819A81820F931F0E94BE190E9441190E
:1035E000789481E0D2CF2F923F924F925F926F9268
:1035F0007F928F929F92AF92BF92CF92DF92EF9283
:10360000FF920F931F93CF93DF93CDB7DEB7CA1B03
:10361000DB0B0FB6F894DEBF0FBECDBF09942A882E
:10362000398848885F846E847D848C849B84AA84D6
:10363000B984C884DF80EE80FD800C811B81AA8163
:10364000B981CE0FD11D0FB6F894DEBF0FBECDBF2E
:10365000ED010895EE0FFF1F0590F491E02D099400
:10366000FB01DC0104C08D910190801921F44150CF
:103670005040C8F7881B990B0895FB01DC0102C07C
:1036800001900D9241505040D8F70895F999FECF1E
:1036900092BD81BDF89A992780B50895A8E1B0E060
:1036A00042E050E00C948A1BDC01A40FB51F41508E
:1036B000504048F0CB01840F951F2E910E94651B4E
:1036C00041505040D0F70895262FF999FECF92BD72
:1036D00081BDF89A019700B4021639F01FBA20BDD7
:1036E0000FB6F894FA9AF99A0FBE08950396272F09
:1036F0000E94651B0E94641B252F0E94651B242FBE
:103700000C94651B0196272F0E94651B0C94641B6B
:10371000DC01CB01FC01F999FECF06C0F2BDE1BD91
:10372000F89A319600B40D9241505040B8F7089580
:10373000F894FFCF630C8B0C230E8B0C230EBE0C66
:10374000DF0C230EDC0DE90DFD0F0110DF0FF90F6B
:10375000051009100D106810DD1070103A103E10A1
:1037600074104210781084104E10D6105210881029
:1037700056108C10B4105A109010BB106010961098
:103780009E1046107C104A10801064109A10AA10E7
:10379000C410D41034106C10E41060116011981132
:1037A00098114312C011C011C0115F12CA12D91270
:0237B000D9122C
:1037B20000000001000000000000000A01000000FB
:1037C200040B000000000000013F03E3073E03DC9E
:1037D2000701818283E200E900EA00B500B600B782
:1037E20000CD008301CC008A0192019401210223C1
:1037F2000224022502260227022A02B300B4006F25
:103802000070009F01CB019F02A0021902946697EB
:10381200C634F0F1F2F3F4F5343590F6F731333281
:023822003691DD
:00000001FF
